:020000041000EA
:1000000000B5324B212058609868022188439860DF
:10001000D860186158612E4B002199600221596106
:100020000121F02299502B49196001219960352056
:1000300000F044F80222904214D00621196600F024
:1000400034F8196E01211966002018661A6600F04E
:100050002CF8196E196E196E052000F02FF8012189
:100060000842F9D1002199601B49196000215960AB
:100070001A491B48016001219960EB211966A021F2
:10008000196600F012F800219960164914480160C1
:100090000121996001BC002800D000471248134993
:1000A000086003C880F30888084703B5996A0420EC
:1000B0000142FBD001200142F8D103BD02B5186610
:1000C0001866FFF7F2FF186E186E02BD00000240BE
:1000D000000000180000070000035F00212200005C
:1000E000F4000018222000A00001001008ED00E03C
:1000F00000000000000000000000000074B24E7A12
:1001000000200420F7010010CB010010CD010010E9
:10011000C9010010C9010010C9010010C901001077
:10012000C9010010C9010010C9010010CF01001061
:10013000C9010010C9010010D1010010D301001045
:10014000C1010010C1010010C1010010C101001067
:10015000C1010010C1010010C1010010C101001057
:10016000C1010010C1010010C1010010C101001047
:10017000C1010010C1010010C1010010C101001037
:10018000C1010010C1010010C1010010C101001027
:10019000C1010010C1010010C1010010C101001017
:1001A000C1010010C1010010C1010010C101001007
:1001B000C1010010C1010010C1010010C1010010F7
:1001C000EFF30580103800BE00BE00BE00BE00BECA
:1001D00000BE00BEF2EB88717C2A0010A42A001039
:1001E0003802001090A31AE700201E49086006C8D4
:1001F00081F3088810471C480068002801D00020BF
:10020000F3E70DA40ECC002902D000F012F8F9E7B4
:100210001649174A002000E001C19142FCD115495E
:100220008847154988471549884700BEFDE701C939
:1002300001C29A42FBD37047A42A0010C0000020DC
:10024000980200207C2C001000000420C80004202C
:10025000442D0010001004200010042000000000B5
:100260007047000008ED00E0000000D09802002078
:100270001C0700203D1F0010B5020010351F0010A4
:10028000F0B5C6460E0000B500290FDD0123D027CA
:100290000400002598463F06206800F005F9424614
:1002A00008CC01359A407A62AE42F5D180BCB8469E
:1002B000F0BDC046F0B5DE4657464E464546E0B571
:1002C00091B05B480AAB06AA02A901F0FBF900282D
:1002D00003D15848564900F007F906990A9A02983E
:1002E00001F014F901F036FF534B0AAA13CB13C2E5
:1002F00013CB13C20AA80621FFF7C2FF0023FF2079
:100300004E4D1A000133590201439200A950202B8F
:10031000F7D102F09BF80A2000F0F8FD484802F0FF
:100320000FF9484A1368002BFCD0474F47493868FB
:1003300002F04EF901218046386802F02DF93B6841
:1003400080229946F82352025B0202920393C02353
:100350001B0304931023002406001A0002A906A818
:100360009A46059401F0BCFD43464246DB01120368
:10037000134306A9524602A8079301F0B1FD344980
:100380000F204944090D0631C9B200F073F801236A
:1003900031000F22009348469B4602F08FF9049BE0
:1003A0002C4A05991340802292021A432A4B049248
:1003B00019402A4B42460B430593310002AB484695
:1003C00002F0D6F95B46B3403A68254811680B4302
:1003D00013601F4B2349D3181B0DDB009B19DB0354
:1003E0000B40A021C9050D6055460436B600921990
:1003F0004A608D605D46184308611B481B4E0560CE
:1004000018351D431A4B1E605A6052469A601D6192
:100410000223036086230D3ADB00CA50D0238022DA
:100420001B0692045A61802292010694DA61FCE76D
:10043000A0860100DC280010F029001068060020CA
:1004400051000420F0060020E0010020E429001003
:100450000000E0AFFFFFF5C1E0FF0FFC0F00100050
:1004600019080000FFFFDFFF04240050A806002049
:1004700040000050094A83009A1810B514684022C1
:10048000544080322240064CC000A44663441A60A7
:10049000044B9C466044416010BDC04604C001400E
:1004A00004D00140004001400123D02283401206C5
:1004B00093629361094A83009A181168402251405F
:1004C00080320A400649C0008C4663441A60054BDE
:1004D0009C460523604443607047C04604C0014009
:1004E00004D00140004001400FB400B5084883B07B
:1004F00001F080FE049B002B07D005A91800019194
:1005000001F0FCFC034801F075FE012001F00EFD36
:100510001029001074290010EFF3108072B6034AFE
:100520001368002BFCD0BFF35F8F70472C0100D005
:10053000BFF35F8F0022024B1A6080F31088704770
:100540002C0100D070B5EFF3108C72B60D4D2B68F6
:10055000002BFCD0BFF35F8F0724CB08C618C05C0C
:1005600001230C40A3401C000440034207D1184360
:100570003070BFF35F8F2C608CF3108870BD10005B
:10058000FFF7B2FF2C0100D0F8B54746CE468846AB
:1005900080B5EFF3108C72B61C4D2C68002CFCD08B
:1005A000BFF35F8F9A4222D807210126894602E0D5
:1005B0000132934218D34D4637001540AF40D4085E
:1005C0000119045D2742F3D110003C430C70BFF3C6
:1005D0005F8F00220D4B1A608CF3108800280EDB11
:1005E000C0BCB946B046F8BD01204042EFE7BFF3BA
:1005F0005F8F00232B608CF310880120404243461C
:10060000002BEDD00898FFF76FFFC0462C0100D0FB
:10061000044A1078431CDBB2172B00D91023137047
:100620007047C046E40100200021044B044ABFF398
:100630005F8F02C39342FAD17047C046000100D0D9
:10064000800100D0054B064A1360064A13605360D0
:100650009360D360136153619361704780808080A1
:1006600000E400E004E400E01F2318401E3B834048
:10067000002905D0C021044A490053501360704737
:10068000802201498B50FAE700E100E0012282401C
:10069000034B1B6813405A1E9341D8B27047C046A3
:1006A00000E100E010B5EFF3108C72B60F4A13684A
:1006B000002BFCD0BFF35F8F0D4B10309B68800088
:1006C0001B580C4A934201D099420CD1084B9B68AD
:1006D0001950BFF35F8FBFF35F8F0022034B1A6087
:1006E0008CF3108810BD01F0C5F9C046240100D07C
:1006F00000ED00E0C1010010F0B5DE4657464E4661
:100700004546E0B583B0EFF3108C72B6624A1368C9
:10071000002BFCD0BFF35F8F604B614C9A680300E5
:1007200010339D005259A146A2423DD08A424ED07C
:100730005C4C161B2F2E37D80127BA4687405A4EDD
:10074000B04636683E401F27B3465646384086407E
:100750004746802001963E50BFF35F8FEFF3058040
:100760008046002835D0834200D093E010005346E5
:1007700098438668B14208D17AE07B00DB199B0080
:10078000E3189E68B14236D018000627C757002FDD
:10079000F3DAB14258D05B46002B27D0C021424B40
:1007A00001984900585018603C4B9B685A51BFF360
:1007B0005F8FBFF35F8F0022374B1A608CF3108876
:1007C00003B0F0BCBB46B246A946A046F0BD22002D
:1007D000EAE71000534698438668B142D5D1062611
:1007E00086570300002E0ADA4A4635E080232E4958
:1007F0000198C850D8E706269E57002E25DB7100C9
:10080000881980002718B846BF689F604746FF795F
:10081000DF714746BF797FB29F71002F26DB4746C5
:10082000BF887F053F15B8468044E01A40441F4FFB
:100830000005400D384398808B191D499B000878AE
:10084000E31898710E70A6E703004146002914D101
:10085000FF318171174981801548017899711649D6
:100860001B1B5B415943090D017094E71148E2E7F6
:10087000062686570300002EC1DA10491048C91A0F
:1008800008394C02640D204398800E484908014302
:10089000D98080E701F0EEF8240100D000ED00E0FF
:1008A000C1010010E801002000E100E000E0FFFFCE
:1008B0001807002001BDFFFFAAAA000022020020A5
:1008C00000F0FFFF00F8FFFF70B501240443EFF3D1
:1008D0000581EFF3108C72B6214A1368002BFCD00F
:1008E000BFF35F8F1F4B05001F4AED1A6D416A432E
:1008F000120D1E4D8900AE6852B27658A6421CD029
:100900000621595691421CD012215956914222D0AB
:100910001E215956914220D02A2159560324914232
:1009200010D0134B19781A708171BFF35F8F0022BA
:100930000B4B1A608CF3108870BDAB680D4C5C508B
:10094000EFE700246100091989005B18FF21997104
:1009500009499980E5E70124F4E70224F2E7C0465B
:10096000240100D0E8010020AAAA000000ED00E068
:1009700018070020C101001001BDFFFF024B9C467B
:1009800061448900016070474000003470B5114C2B
:10099000114DAC420FD2FF262368002B0CD0FFF77D
:1009A00037FE01002000FFF7E9FFA680BFF35F8F4D
:1009B0000834AC42F0D370BDFFF72AFE01002000DE
:1009C000FFF7DCFF2671BFF35F8F0834AC42E3D33F
:1009D000F1E7C04688020020980200200A4B1968FF
:1009E000EFF3108072B60A68002AFCD0BFF35F8F65
:1009F0001B68BFF35F8F00221A6080F3108840BF2E
:100A0000002000217047C0460C070020F0B5DE46EC
:100A100057464E464546E0B587B0EFF305830322BF
:100A200001251A40954091008846A946B34B039290
:100A30005C58B34B1D60B34B04934B46B2484363C1
:100A40000823E55E002D37DAA3881BB2002B00DBFC
:100A5000ADE0A379002B00D0EEE00823E05E002893
:100A600020DB430062691B18DB00D3189E68DD6839
:100A7000731C00D111E1A44801004144826A0B6952
:100A8000B71A9B1A9F4215D30123026A0398834029
:100A90001A420FD09C4800F05FFB8D4202DCCCD1A3
:100AA0008642CAD940BF07B0F0BCBB46B246A94691
:100AB000A046F0BD0E61EDE762696B0092465B19DE
:100AC000DB009A4453469E68DF6800F045FB8F4286
:100AD000BADC00D103E1002F00DAE8E052465346C9
:100AE00052691B699346049A934200D1D9E0524659
:100AF0000821605E528800045946104398470090D0
:100B000001910099019A0B001000134300D1CEE02F
:100B100013000A00B61A9F41002806DB7A4800F04D
:100B20001BFB009E019F36184F4153469E60DF60BD
:100B300000229A5E002A00DA86E75300991860695D
:100B4000C900411802938B68C9689B46B94200DD11
:100B50007AE702D1B34200D976E708239C46A44441
:100B6000059565462281A446029B2C0006E05300B1
:100B70009918C90041188D68C968AB469B18DB00FD
:100B8000C318B94206DC00D1B3E01C000023E25ECA
:100B9000002AECDA230064469C4653461A806346DA
:100BA000059D1D80A3881BB2002B00DA51E7226946
:100BB000EFF3108172B61368002BFCD0BFF35F8F88
:100BC0000123A7885B42A3803FB22369BFF35F8FF5
:100BD00000221A6081F31088002F00DA39E7230021
:100BE000083322009A4666697B00DB19DB00F318A4
:100BF000996850468C460824115FDD68002910DB97
:100C0000029306E0AB4244D00023E15E20000029BD
:100C100006DB4C006418E4003419E368AB42F1DDF4
:100C2000029B078000201F5E1980002FDCDA140071
:100C3000A379002B00D110E70023A371260008231D
:100C4000E15E08364B1C00D12CE70800A24665691E
:100C500002E03E004B1C1AD04B005B18DB00EF1883
:100C60000A008C46E95E7B881BB2002BF1DA012377
:100C70005B42DC17BB60FC60824205D0534631808A
:100C80001B893B8053461A8160464B1CE4D1544675
:100C9000E5E6A3686345B7D9C2E76B1C00D0EAE676
:100CA000F8E65B4658461B69984700281BD1534617
:100CB0001B8822692381EFF3108372B61168002923
:100CC000FCD0BFF35F8F514662880A80226965803D
:100CD000BFF35F8F0021116083F31088B4E6864272
:100CE00000D8F8E6B0E65B461A685B6800920193AC
:100CF00007E7B34500D848E74CE7C046F8060020B0
:100D00003C7005400D0A00100040054070B52E4CA7
:100D10002569002D04D00A212C48FFF72FFE70BD55
:100D20002B4E0321300000F00DFAE660FFF770FC57
:100D3000284B03229C46D02322701B061B680121EE
:100D40006370254B6044A3600F2380002061022064
:100D5000638063694942A180198002311986473155
:100D60001D83585218315A5275325C3999521832D3
:100D70000131995218320131995218320131995288
:100D8000083518329D520231183299521832013109
:100D90009952183201319952183201319952183250
:100DA000013199521832013199520C4B0C49DC60D7
:100DB00001303562FFF776FC01210320FFF754FC78
:100DC000084B1D60A7E7C046380200200C07002032
:100DD0000040054040000034FFFF1000F8060020EE
:100DE0000D0A00103860054070B501000469EFF38A
:100DF000108C72B620680028FCD0BFF35F8F0220F1
:100E00000D5E4C6968004019C00024180869002D67
:100E100036DB26884E80BFF35F8F002606608CF39A
:100E20001088E36063880498013320615B040598AF
:100E30005B0CA26060611A1C002B1FD093B22804C7
:100E4000628018430A69EFF3108C72B61368002BA6
:100E5000FCD0BFF35F8F8B8823808D800B69BFF33D
:100E60005F8F00221A608CF310880B7801329A4051
:100E7000CB6808498C4663441A6070BD0122DDE7E7
:100E8000BFF35F8F002303608CF310880120404282
:100E9000F3E7C0463C20000010B543890A14934292
:100EA0001ADD53009B184269DB00D3180469EFF385
:100EB000108C72B62268002AFCD0BFF35F8F5A886C
:100EC000090494B2090C8A4208D00369BFF35F8F0A
:100ED00000221A608CF31088002010BD80221202BC
:100EE00014435C80012302698371BFF35F8F00218B
:100EF00011608CF31088044902788C469340C268D4
:100F0000012062441360E8E73C200000F0B5C646CB
:100F100000B582B0040000F027F9FA2206000F00A5
:100F2000200000230021920000F070FF8019794119
:100F300004000D1E02DA01242E4D6442062676427C
:100F4000F71736196F41AF4214D811D000F00CF9E1
:100F500032003B00121A8B41002B15DC002B46D0CF
:100F60002000290000F03EF902B080BCB846F0BD78
:100F7000A642EBD90026002700F0F6F832003B002D
:100F8000121A8B41002BE9DD00F0EEF832003B0035
:100F9000121A8B41002B0ADB00230193164B3200FF
:100FA000009316483B00FFF71FFF0130D8D0002305
:100FB0003900B0469C46124A1248536A994204D8F6
:100FC000966A4645CCD29942CAD10668EFF310879B
:100FD00072B63368002BFCD0BFF35F8F0368BFF39A
:100FE0005F8F66461E6087F3108820BFE5E7002A02
:100FF000B6D0C9E7FFFFFF7FDD09001038020020EF
:10100000004005400C070020F0B54546DE46574637
:101010004E46E0B504000D0085B0EFF30583894628
:10102000002B37D1434B9A461B6883422DD0424B4D
:101030009B46DB6898465B461B784046039300F06E
:101040008BF84246039B060004339B009B580F001D
:101050001B1A290020000022801BB9418A4228DC8B
:1010600025D020BF354B586A48452ED3401B9A6A7D
:10107000431E98410023A2425B41184305B0F0BCD7
:10108000BB46B246A946A046F0BD53465B688B42BC
:10109000CDD1E6E7294900204B6AAB42EED38A6AFC
:1010A0005B1B591E8B41A24240411843E6E7834235
:1010B000D7D900F059F822002B00121A8B41002BCF
:1010C00005DA1E4A536A4B452AD20020D6E7002390
:1010D00001931B4B2200009358462B00FFF784FE20
:1010E000011EEEDD53461C605D60144B5A6A4A4592
:1010F00014D39B6AA3420FD35846FFF7CDFE0F4A85
:101100000020536A4B45B9D3926A5B1B591E8B4131
:10111000A24240411843B1E74A45EDD120BFEBE779
:101120000020926A5B1BA24240415A1E9341184321
:10113000A4E7C046300200203802002000400540ED
:10114000DD09001010B5024A0248FFF7FBF910BD97
:1011500020290010340600200300416A0A00986A22
:10116000596A8A42FAD17047034B596A0A00986A51
:10117000596A9142FAD170470040054070B50400A9
:101180000D00174A536A1900966A536A8B42FAD1C6
:101190003000190024184D41AB4216D813D0104B23
:1011A0002A005B6A9D4203D90D494B6A9342FCD3E6
:1011B000934207D10A4A02E0516A994202D1916AE8
:1011C000A142F9D370BDA642E9D9054B5B6A1C0068
:1011D0005A1CEFD0012201246442E5175242E3E792
:1011E00000400540064A536A9942FCD807D1044B97
:1011F00002E05A6A914202D19A6A9042F9D8704745
:1012000000400540F8B5040006200D0000F078F914
:10121000002844D0374B3849E3185A1E93418022A6
:10122000120494465B429B0D344A9B056344136051
:10123000334A136018000A689043FBD12D4B314AA2
:10124000E31859424B4180215B0049000620995226
:1012500000F056F92900C00000F04AFD0130C30932
:101260001ED1402701226262A362266BF30722D4BB
:10127000E36A254B0620E51800232B60266300F067
:101280003FF93900800000F033FD7023E26A5A40D4
:101290000E3313402B601D4B23630323A364F8BD5F
:1012A0001B4A93421ED900231A4A1B4F6262A36253
:1012B000266BF307DCD5194B144AE3181A60656AEC
:1012C000A36A0620AD01ED1800F01AF9144900F0E8
:1012D0000FFDAD020100280000F00AFD0021FFF71C
:1012E0004DFFC5E74006800E9F011A003F1803001E
:1012F000B9E7C0460080FCBF08C0004000E00040E5
:1013000000F00040100700202C1000000103000036
:10131000FEFF0000FFFF0000C0FF3F003030000074
:101320004E0E0000F8B5DE464E4657464546E0B53F
:101330008B4605000A991800160000F0D9FC0A9B9C
:101340006C001F02324B64199C46A400644463681D
:1013500081469F4200D967602B1FDBB29846012B64
:1013600030D9C02380229B01E31812011A60294B57
:10137000AD0059599A4600291BD17301E026226815
:1013800053401E40802342465B01E3181E60012A41
:1013900030D9802380229B01E31812011A60534642
:1013A0004A4667605A51F0BCBB46B246A946A046C1
:1013B000F8BD586900F09CFC013043001B18033B4A
:1013C000FDD2DAE75B46012BCBD1C02303229B0180
:1013D000E3181A60023AA3681A42FCD07301E026AF
:1013E0002268AD0053401E4080230A4A5B019246AA
:1013F000E3181E605A462168514003220A401A60D1
:1014000001225B469A40A3681A42FCD0C1E7C0465D
:10141000008000403C060020F0B546464F46D646C8
:10142000C0B51F00344B44009C462418A4006444FB
:10143000636888461600FF2B02D880235B00636038
:10144000031FDBB29A46012B30D9C02380229B01B7
:10145000E31812011A60294B850059599946002951
:101460001BD17301E026226853401E408023524660
:101470005B01E3181E60012A30D9802380229B0182
:10148000E31812011A6080235B0063604B465F51D2
:10149000E0BCBA46B146A846F0BD586900F028FC49
:1014A000013043001B18033BFDD2DAE74346012B12
:1014B000CBD1C02303229B01E3181A60023AA36830
:1014C0001A42FCD07301E0262268850053401E407A
:1014D00080230A4A5B019146E3181E604246216858
:1014E000514003220A401A60012342469340A268F9
:1014F0001342FCD0C1E7C046008000403C060020FB
:10150000014B8000C05870473C060020F0B54746AC
:10151000CE4680B55B4B16005A680700884683B0FC
:10152000FF2A02D8802252005A600322564B554DA2
:101530001A600123AC682342FCD020222968514064
:10154000C0320A4051490A602A684E4D5A4003236E
:1015500013400B600223AC682342FCD080224C4B2A
:1015600012011A6080235B006B604A4C99464A4B1B
:101570003A006361012143464848009600F0D8F9DB
:1015800041463800714300F0B3FB454B05005A68F3
:10159000FF2A01D84A465A608022424B12011A6043
:1015A0002169002907D0606900F0A2FB01304300E7
:1015B0001B18033BFDD2E023394A3B4811680B401E
:1015C000036002231168594001330B40042103607A
:1015D00093681942FCD08021344B090119608021A5
:1015E000334B490051602361264B5A68FF2A00D8CB
:1015F000596003220121244B1A60224A9368194240
:10160000FCD0E023106803402048036012680323E5
:101610004A40022113401B4A036093681942FCD0E0
:1016200080211B4B090119608021224B4900516028
:1016300065615A68FF2A00D8596080221E4B12014A
:101640001A60A169002907D0606900F051FB0130E0
:1016500043001B18033BFDD2402316490A685A4039
:10166000A0331340154A13608022154B12011A60F3
:1016700080235B004B60084BA36103B0C0BCB9463C
:10168000B046F0BD3C8000403CB000403C90004083
:101690003CA000403C060020006CDC0200800240C0
:1016A0003080004030B000403090004030A000401A
:1016B000001BB7004880004048B000404890004000
:1016C00048A00040F0B54E46DE4657464546E0B5D8
:1016D0001600924A85B09346A022520091465A467F
:1016E00003969B46060001920291019B8C4A93420D
:1016F0000DD901235B429C468A4AE1449446019BF2
:10170000634401934B460F2BEFD100208EE01F0066
:10171000854B07249C466744230063433800190027
:10172000984600F0E5FAA246651E864250D06C430A
:101730003800210000F0DCFA864259D06B1E984632
:10174000012D00D1D3E05346E41A2100380000F007
:10175000CFFA864258D0AB1E9846022D00D1B9E090
:101760005346E41A2100380000F0C2FA864264D0E1
:10177000EB1E9846032D66D05346E41A210038002C
:1017800000F0B6FA864200D172E02B1F9846042D75
:1017900000D174E05346E41A2100380000F0A8FAA2
:1017A000864200D17DE0052D00D17FE05346380010
:1017B000E11A00F09DFA06248642ADD10029ABD192
:1017C000C8465B46D14601250298039E26E0A846FE
:1017D0004146380000F08CFA002900D197E0651EE0
:1017E000A2466C433800210000F082FA8642A5D15F
:1017F0002100380000F07CFA00299FD1C8465B46E2
:10180000D1460298039E09E00029A4D15246C2465F
:101810005B46C846554691460298039E4246434958
:1018200051434A460160012032601D6005B0F0BCA2
:10183000BB46B246A946A046F0BD0029E6D0EB1E45
:101840009846032D98D1092138000324092500F07A
:101850004FFA8642BBD00323062138009A46033450
:10186000073D00F045FA8642C2D0012398466AE758
:101870000029CBD02B1F9846042D00D08AE70424E2
:101880000C353B099E42A2D004230C2138009A4615
:1018900008340D3D00F02CFA8642A9D00223984668
:1018A00051E70029B2D0052D00D07FE7192138007B
:1018B000192500F01DFA864226D01421380000F0C8
:1018C00017FA052314249A4686421BD0023B9846F9
:1018D000153D38E7042302249846BB089E4200D1F8
:1018E00076E7A246013D7B089E4200D180E7B742E1
:1018F00000D0FEE60122C8465B46914601250298CB
:10190000039E8BE7042573E7A846052460E7C846D5
:101910005B46A14625000298039E7FE750262F00D4
:1019200050F80C0020D1FFFFB0710B00001BB70076
:10193000F8B5040021481E0017000D0000F0D8F98A
:101940000100380000F0D4F9069B36041B031E4347
:101950002368002B20DB1A4B1A49E3185A1E9341C7
:101960008022920194465B421B0B174A1B0363447F
:101970001360164A13601F000A689743FBD1144B8B
:101980002560E2182123A06013602368002BFCDA95
:101990000823E6601360F8BD3F2322681340AB4282
:1019A000D9D1A3681B051B0D8342D4D1EE22E36875
:1019B000D2021340B342CED1EDE7C046001BB700C0
:1019C0000040FDBF08C0004000E0004000F00040C3
:1019D000043000008023024A9B000B43D36270470F
:1019E00000800540002310B50100988A1B8B9847A2
:1019F00010BDC046162310B50100188802331B889D
:101A0000984710BDF8B54746CE4680B50F1E18D092
:101A100014239946043304000025012698464B46BA
:101A20001888434621681B88984701C4431E984183
:101A300001350640AF42F2D13000C0BCB946B046D5
:101A4000F8BD0126F8E7C046AA23064A1B01136029
:101A50008D235B00D3600449044B19605368002B4D
:101A6000FCDA70470040024000B0FA00006002401B
:101A70007047C04610B50148FEF736FD44290010F6
:101A800070B5074D074EB54209D20024013E761BC2
:101A9000B60808CD984723000134B342F9D170BD90
:101AA00098280010D828001070B5074D074EB54291
:101AB00009D20024013E761BB60808CD98472300C2
:101AC0000134B342F9D170BDCC280010D8280010E1
:101AD000054B064A06491A60064A074B1A60100071
:101AE0000B689843FBD1704700E00040BFCDFBFE80
:101AF00008C00040FE7F3C0000F00040044BDB6C5F
:101B0000002B03D18022034BD2021A607047C046DB
:101B1000000011504C201150044A054B1A60054A30
:101B20001368DB018033FBD17047C046FFFFFF0124
:101B300000F0004008C000404022034B9A675A67FB
:101B40001A67DA667047C04600F0014010B5FEF72C
:101B50006BFD10BDF8B52749274C284D641AA40821
:101B60002200302C00D930222800920000F0B8F971
:101B70002F2C3BD830202F21A700EB195B07204AE0
:101B8000001BDB0F091B052916D92600002B01D0ED
:101B9000EA51661CC01AE3189B004108EB18C90003
:101BA000C9181A605A6008338B42FAD101230342E4
:101BB0001CD098438419A700EA51631C2F2C15D020
:101BC0009B00EA50A31C2E2C10D09B00EA50E31C73
:101BD0002D2C0BD09B00EA50231D2C2C06D09B00F3
:101BE000EA50631D2B2C01D09B00EA50054B9D60F1
:101BF000F8BDC04600010010C00100100000002028
:101C0000C101001000ED00E0002310B5294C82B0A6
:101C1000A367FFF719FF0122274B1A60636C012BA2
:101C2000FCD10322254B1A60224A936B012BFCD175
:101C3000013300930121224A22480433FFF778FE42
:101C4000052301210093204A2048FFF771FE00225E
:101C5000022104201E4BFFF7DFFB0022012105209B
:101C60001C4BFFF7D9FB0022002107201A4BFFF77E
:101C7000D3FB002200210820174BFFF7CDFB802368
:101C8000DB000093002200210920134BFFF74AFBE1
:101C90000022104B00210620FFF7BEFB0420FFF7B7
:101CA0002FFC0E4900F024F801000020FFF792FEFF
:101CB00002B010BD008000403CB0004030B0004099
:101CC000002F685900800240008C864700C0024007
:101CD000001BB70040597307006CDC0240420F0044
:101CE00001480421014B184750020020051A00103A
:101CF000114A936F9B0813D210665166002905D0D4
:101D0000FFE7FFE7FFE7516F106F704704B500284A
:101D100001D00020C04300F0AFFD002104BDC0464B
:101D2000F0B5146E556E576F166FFFF7E5FF14662A
:101D3000556657671667F0BD000000D0132370B5D5
:101D40001D78012D19D014DD1F48FFF753FE060042
:101D50001E48FFF74FFE1E4C80223100200000F08D
:101D6000BFF8022D2DD01B48FFF73CFE1A4B186020
:101D700070BD1A4B164CA364F5E7184B144C236046
:101D80006360A360E36023616361A361E361236235
:101D90006362A362E36223636363A363E363236415
:101DA0006364A364E36423656365A365E3652366F5
:101DB0006366A366E36623676367A367E367A36459
:101DC000D1E7064BA364CEE753440000534600001E
:101DD000180400204C33000008070020E11D00100B
:101DE00007B5604601880A0A0230DF2AFAD1C9B273
:101DF000820804D3028840880004104300E0006891
:101E0000014A5050039007BD18040020514343433A
:101E1000C9188C46110C83B24B4310B4040C6143B7
:101E200092B280B2504362431C041B0C001910BCD8
:101E300059411304120CC01851416144704700000D
:101E4000132310B512481C78FFF7D4FD0100012CB4
:101E50000AD003DD80220F4800F042F80E48FFF759
:101E6000C1FD0E4B186010BD0A4C5422200000F03A
:101E700037F80B4B6365A365E36523666366A3666A
:101E8000E36623676367A367E3672362E361E5E7CC
:101E900053460000180500204C33000008070020BE
:101EA000A51E001007B5604601880A0A0230DF2A25
:101EB000FAD1C9B2820804D30288408800041043D2
:101EC00000E00068014A5050039007BD180500204B
:101ED00001480421014B184760020020051A001038
:101EE000014B5B68184700006002002010B5002815
:101EF00000D110BD00F034F9FBE7C04610B5094A27
:101F00000300146884B0002C08D001220091064818
:101F1000524203A9A047012004B010BD00F06AF9A5
:101F20000020F9E7F4060020ED1E001000BEFDE7DA
:101F30007047C04610B5FFF7F9FFC04670B5FFF710
:101F40009FFD074D074EB54209D20024013E761B86
:101F5000B60808CD984723000134B342F9D170BDCB
:101F6000D8280010DC280010030010B5080011006C
:101F70001B68984710BDC046F0B5C64600B5437D06
:101F800007000C001600002B46D0002A17DD0B7846
:101F90000A2B24D000239846012E13D001252900B6
:101FA000635C01350A2B26D0B542F8D1464509DCE1
:101FB000A419013C23780D3B5A4253413B7580BC28
:101FC000B846F0BD4346E018A419F11A013C3B683D
:101FD000984723780D3B5A4253413B75EFE7037D09
:101FE000002BD7D102210F483B689847012EDFD044
:101FF00001239846D2E7631E5B5C0D2BD4D0884545
:1020000004DA4346C91AE0183B689847022105489C
:102010003B68A8469847C7E7036811002000984727
:10202000CDE7C0465C2A0010F0B54546DE464E4678
:102030005746E0B583B091461C0080460D00FFF77F
:1020400093F80023304A12184B41002B02DA012288
:102050002E4B52422E4908008A4600F015FC07001C
:102060006B1C03D1404600F0D1FB0500002C27D0AB
:10207000284E294B1C68002C18D04B46002B21D130
:10208000264B994602E02469002C0FD02368002BD0
:10209000F9D04B461B68002B01D09C42F3D12000A5
:1020A0002A004146B0472469002CEFD1002F26D1E9
:1020B000280003B0F0BCBB46B246A946A046F0BD1E
:1020C000174ED6E7154B99460A239B4602E0246932
:1020D000002CEBD02368002BF9D04B461B68002B5B
:1020E00001D0A342F3D12A0041462000B0476B46FD
:1020F0005A462000DA71D91D0122B047E7E7504661
:1021000000F0B2FBD4E7C04640420F00FFFFFF7F64
:1021100090020020791F0010E8060020EC06002045
:10212000691F00100A4A1368002B05D10CE01A0041
:102130001B691032002B07D08342F8D1002902D14D
:1021400018691060196170470029FCD01060FAE727
:10215000E806002010B500F039F9012010BDC04696
:10216000F0B5CE46474680B583B06B460600DD1D10
:102170002870FEF7F9FF0023194A12184B41002B73
:1021800002DA0122174B524217490800884600F034
:102190007BFB164B81461C68002C14D0144F02E0C8
:1021A0002469002C0FD02368002BF9D03B68002B4A
:1021B00001D09C42F4D1200001222900FFF7DCFE6F
:1021C0002469002CEFD14B46002B05D1300003B021
:1021D000C0BCB946B046F0BD404600F045FBF5E74F
:1021E00040420F00FFFFFF7F90020020E806002022
:1021F000EC06002070B5040000F008FB012301008C
:10220000050001222000FFF70FFF084B1C68002C7F
:1022100006D06368002B05D098472469002CF8D1BC
:10222000280070BD2469002CF3D1F9E7E8060020EE
:10223000F0B5002915DD0E4B0D271A680D4B0E4C1D
:10224000D3185D426B41451820215B001E5F047866
:10225000A64207D093691942FCD101301460A8420C
:10226000F5D1F0BD93691942FCD11760F2E7C04681
:10227000140700200080FCBF10070020204B70B521
:1022800004000D1E1E682ADD002010211D4B013C9C
:102290001A689369194214D1013093691942FCD12B
:1022A000136823548542F4D1002E08D05023936341
:1022B000516B183B0B4014498C4662441360280054
:1022C00070BD002E08D050239363516B183B0B4018
:1022D0000D498C46624413600028F1D10CE0002EB9
:1022E0000AD05022074B1B689A63596B183A0A4070
:1022F00005498C4663441A6003204042E0E7C0462B
:102300002C0600201407002034100000064B10B5E6
:102310001B68002B06D00021044A12689163044A0E
:102320001068984710BDC0462C06002014070020F6
:10233000300600200822034B19688B691A42FCD131
:102340007047C04614070020F8B51A4F1A4B3A6878
:102350000500D31858424341184E14331C0033680B
:10236000002D02D0002B0FD0F8BD002BFCD0002197
:1023700020009563FEF778F920001149FEF7BCF9BB
:10238000104B35601D60EFE70E4B200019600C49C3
:102390003560FEF787F901212000FEF765F950222C
:1023A0003B689A63596B183A0A4007498C46634464
:1023B0001A60D9E7140700200080FCBF2C0600201B
:1023C0000D23001030060020341000000D4B10B516
:1023D0001B780D4B0D4C1B780D4B02211B780D4BC0
:1023E00000202360FEF746F802210120FEF742F8A4
:1023F000E12120684902FEF705FF01210648FFF7A9
:1024000091FE10BDA02A00109C2A00101407002085
:10241000982A001000400340700200200022014B67
:102420005A6070471C06002010B50520FFF768F8B9
:10243000014B186010BDC0461806002003BDC04601
:1024400010B50400FFF730FBA04710BD70B5802425
:10245000124B6402124A1C6013682342FCD00F2006
:10246000FEF714F9002105000F20FEF7FDF8002209
:102470000C4B5A70D0220C4B12061C60136DDB07FC
:1024800004D4012420BF136D1C42FBD0D0232900AB
:102490000F201B069B6DFEF7E7F870BD042001407E
:1024A000040001406406002004300140F0B5C64637
:1024B00000B5040086B00F200E009046FEF7E6F847
:1024C000002105000F20FEF7CFF800220023009224
:1024D0000193424601230392184A02935370D0237A
:1024E000049605946F4600240026012102201B0655
:1024F000002C13D01A6D1042FCD05C6540BF1A6DE1
:10250000114203D120BF1A6D1142FBD09A6DA24235
:1025100009D00026B200BC58EAE79A6D1A6D114244
:10252000FBD140BFE6E70136062EF3D129000F208C
:10253000FEF79AF806B080BCB846F0BD64060020ED
:102540000D4B0E4A70B5934210D31C000C4A9918DB
:102550000B4D0C4A92686051FF20C00023500A4B7B
:102560000A4823500A48FFF7A1FF70BD01235B42D0
:102570001C000849ECE7C04600080420C8000420FD
:10258000F407000000ED00E041240010FC0700000B
:102590003D240010F307000010B50A4B0A4AC41886
:1025A000240DA40082B0009208482200E31CFDF72D
:1025B000EBFF844202DC001B02B010BD0120404250
:1025C000FAE7C0460000E0AFC0290010380600203E
:1025D000F0B55746DE464E4645468846E0B583B0E0
:1025E00006000524FDF798FF434684461C571879DA
:1025F000304B314AF3181B0D9B009246D7580122ED
:1026000020218240091A013A002C44DB2500A14216
:102610003BD31100A1400F4237D14146096889469A
:1026200041468979002941D1AA40934659463A400A
:1026300039422DD1802189018846002816D0614673
:10264000A44634004E469946030001915100705A49
:10265000404500D24019A9181231890001320851B1
:102660009342F3D8019B64469C464B465A46174317
:102670005246D7506046FDF75BFF200003B0F0BC28
:10268000BB46B246A946A046F0BD01246442F1E72C
:1026900009246442EEE70C1E02DAF9E7013CF7D3A5
:1026A0001100A14025000F42F8D1B6E7142464427E
:1026B000E0E7C0460000E0AF24060020F0B54E463B
:1026C0004546DE465746E0B583B089460CA98446A8
:1026D0000D781F2A45D84946490088464944C90013
:1026E000461837003400DC373868CC34834620681D
:1026F000310001901C4880248246A40251440C60A1
:1027000069424D411E216D428D4318498A46554408
:10271000052B0CD9A0201F214005D83654010443B5
:102720000532053B3C600A403560052BF6D8520166
:102730009B06134342464A44D20062441000DC32F6
:1027400013600300D8331D605B461360019BCC30DF
:102750000360002003B0F0BCBB46B246A946A046C9
:10276000F0BD05204042F5E7CC3000009FE00000BE
:10277000F0B501258D400468AC430460002B2ED0D9
:102780004D006C18E400041926001F68C836376035
:102790009F68043677605F68DB68DC3437602360ED
:1027A0006B18184DDB00AC468025C41864442D0618
:1027B00025602560144C0D1D8C408460012426008A
:1027C000AE40802508318C401F21AD014519C0184D
:1027D0000A40D8302E602C6002600020F0BD4D0011
:1027E0006C18E400041926008027C8367F02376081
:1027F000C0273F03B760F82704367F02DC34376018
:102800002360CDE7D01000000101010110B583075E
:102810000AD00300032102E001330B4205D01A78ED
:10282000002AF9D1181A10BD030019680C4A0D4C82
:102830008A188A4322420FD15968094A04338A18F8
:102840008A43224208D15968054A04338A188A43C8
:102850002242F1D000E001331A78002AFBD1E1E7EF
:10286000FFFEFEFE8080808001B40248844601BCE9
:10287000604700BFA501002001B40248844601BCA6
:10288000604700BFCD01002001B40248844601BC6E
:10289000604700BF71010020D11A0010FD1A00101E
:1028A000E11C0010D11E00103D1D0010411E001043
:1028B000091C0010191B0010391B00104D1B0010C3
:1028C0008D090010551B00100D0D0010711A00101D
:0C28D000450600101D24001029240010F3
:1028DC0053797374656D20636C6F636B206F662026
:1028EC002575206B487A2063616E6E6F742062656B
:1028FC002065786163746C792061636869657665BD
:10290C00640000000A2A2A2A2050414E4943202AFA
:10291C002A2A0A00486172647761726520616C61D1
:10292C00726D20256420616C726561647920636C22
:10293C0061696D65640000004861726420617373A5
:10294C006572740052656C6561736500626F6F74BB
:10295C00325F77323571303830000000322E332E32
:10296C00300000007069636F0000000070696F5FD9
:10297C00646D615F746573740000000041756720BD
:10298C003130203230323600554152542073746449
:10299C00696E000055415254207374646F75740055
:1029AC005541525420737464696E202F20737464E3
:1029BC006F7574004E6F2050494F207374617465AD
:1029CC00206D616368696E65732061726520617644
:1029DC0061696C61626C6500EC29001001FF0000FC
:1029EC0001600000190000000D0000000E00000046
:1029FC000F000000100000001100000006005250F3
:102A0C00D3F075425029001006005250E182887FA5
:102A1C005829001006005250ABB3605368290010BF
:102A2C0006005250BBFF3CB67029001006005250F5
:102A3C00861C030278290010060052505422A29DD5
:102A4C008829001005005250DE65F468442D0010F2
:102A5C000D0A00000600525053B4F4A1AC2900102A
:102A6C000800525012000000080052509210000052
:102A7C00082A0010142A0010202A00102C2A0010FA
:102A8C00382A0010442A0010502A0010742A001012
:082A9C006C2A0010602A0010F2
:102AA40003000068EFF3108C72B60268002AFCD0B1
:102AB400BFF35F8F04229A56002A0BDB002900D053
:102AC4000A6000201B68BFF35F8F00221A608CF33A
:102AD40010887047D0221206126801201A71F1E79B
:102AE400F0B54F46D6464646C0B51F00D0231B0658
:102AF4001B6804009A460023904699460BE0BFF3F6
:102B04005F8F4946116083F310884046390000F016
:102B14004FF800281AD12668EFF3108372B635688F
:102B2400002DFCD0BFF35F8F257922687F2DE6D975
:102B340051462171BFF35F8F0021116083F3108828
:102B44000120E0BCBA46B146A846F0BD0020F8E733
:102B540070B582B001A9040016001D00FFF7A0FFA4
:102B6400002807D1D0231B0601991B7849B25BB218
:102B7400994201D102B070BD32002B002000FFF752
:102B8400AFFFF7E70268EFF3108172B61368002B0A
:102B9400FCD0BFF35F8FFF2303710368BFF35F8F24
:102BA40000221A6081F3108840BF70477047C04606
:102BB40001B40248844601BC604700BF09100010FC
:102BC4000000205010000000000000000000010080
:102BD40000000000000000000000020000000000EF
:102BE40000000000000003000000000000000000DE
:102BF4000000FF000000000001B5486801318E4666
:102C04000047704609380149884701BDC9080010CA
:102C1400FFFFFFFFFFFFFF7F000000000000000038
:102C240000000000000000000000000098020020E6
:102C3400503300004C330000543300005233000082
:102C44004D5300004D430000533400004334000052
:102C540031220010352300107D220010492300107A
:102C6400000000000001000000000000000000005F
:082C7400000000000000000058
:102C7C00D02380221B0652025A61A02301210C4A48
:102C8C00DB059858014202D099500A4A1A60A022DA
:102C9C000221074BD205D058014203D0D150064B2C
:102CAC00064A1360D02380221B0652029A61704799
:102CBC000C04000068060020A8060020400000500C
:102CCC0070B50B20114900F027F801210B2000F002
:102CDC002BF801220E4B80251A608024D0228020F4
:102CEC000C4B12061968ED0164028002D5618B68E9
:102CFC00A34205D150618B60D5618B68A342F9D09A
:102D0C009061002BF2D08B60F6E7C04601000420E6
:102D1C00F0060020E001002001B40248844601BC0A
:102D2C00604700BFA506001001B40248844601BCF0
:082D3C00604700BF69060010AA
:04000005100001E9FD
:00000001FF
