:020000041000EA
:1000000000B5324B212058609868022188439860DF
:10001000D860186158612E4B002199600221596106
:100020000121F02299502B49196001219960352056
:1000300000F044F80222904214D00621196600F024
:1000400034F8196E01211966002018661A6600F04E
:100050002CF8196E196E196E052000F02FF8012189
:100060000842F9D1002199601B49196000215960AB
:100070001A491B48016001219960EB211966A021F2
:10008000196600F012F800219960164914480160C1
:100090000121996001BC002800D000471248134993
:1000A000086003C880F30888084703B5996A0420EC
:1000B0000142FBD001200142F8D103BD02B5186610
:1000C0001866FFF7F2FF186E186E02BD00000240BE
:1000D000000000180000070000035F00212200005C
:1000E000F4000018222000A00001001008ED00E03C
:1000F00000000000000000000000000074B24E7A12
:1001000000200420F7010010CB010010CD010010E9
:10011000C9010010C9010010C9010010C901001077
:10012000C9010010C9010010C9010010CF01001061
:10013000C9010010C9010010D1010010D301001045
:10014000C1010010C1010010C1010010C101001067
:10015000C1010010C1010010C1010010C101001057
:10016000C1010010C1010010C1010010C101001047
:10017000C1010010C1010010C1010010C101001037
:10018000C1010010C1010010C1010010C101001027
:10019000C1010010C1010010C1010010C101001017
:1001A000C1010010C1010010C1010010C101001007
:1001B000C1010010C1010010C1010010C1010010F7
:1001C000EFF30580103800BE00BE00BE00BE00BECA
:1001D00000BE00BEF2EB88710069001028690010B3
:1001E0003802001090A31AE700201E49086006C8D4
:1001F00081F3088810471C480068002801D00020BF
:10020000F3E70DA40ECC002902D000F012F8F9E7B4
:100210001649174A002000E001C19142FCD115495E
:100220008847154988471549884700BEFDE701C939
:1002300001C29A42FBD3704728690010C000002019
:10024000C8020020306B0010000004204000042091
:10025000706B00100010042000100420000000004B
:100260007047000008ED00E0000000D0C802002048
:10027000E4150020395B00105D030010315B0010B5
:10028000F0B5C6469846002300B58AB0160005931F
:100290008022F82352025B0202920393C0230500DE
:1002A00002AC0F001B032100102206A8049305F0E6
:1002B00015FC3203F301134306A910222000079313
:1002C00005F00CFC144B4046E918090D0631C9B283
:1002D00003F0B4FD0123424639000093280005F0E5
:1002E000EBFF1F22059B39009343424613430B4A01
:1002F000280013408022520313430593049A084BAD
:100300001A40084B134304933200230006F02EF8E2
:100310000AB080BCB846F0BD0000E0AFFFFF0FFCA4
:10032000FFFFF50100000240F0B5C6460E0000B523
:1003300000290FDD0123D0270400002598463F0641
:10034000206803F095FD424608CC01359A407A6258
:10035000AE42F5D180BCB846F0BDC046F0B5DE4631
:1003600057464E464546E0B589B069465A4802AB05
:1003700001AA04F077FF002803D15848564903F03A
:1003800097FD0199029A009804F090FE05F0E0FCB8
:10039000534B02AA13CB13C213CB13C2062102A8DC
:1003A000FFF7C2FF4F4B504D504C2B60504B00217C
:1003B000236001239A000133A950A150402BF9D1A9
:1003C00005F042FE0A2004F071FB4A4805F0B6FE33
:1003D000494A1368002BFCD0484E4949306805F063
:1003E000F5FE01218146306805F0D4FE4A4680467C
:1003F000012301003068FFF743FF0121306805F059
:10040000C9FE4A460700010002233068FFF738FFA3
:1004100031683C4B2026CB181B0DDB009B46434626
:100420001A00394B5A441800D2031040374A844608
:100430001043994682464346A0201A1D5346920017
:10044000C0058A18426086600560DA25036163464C
:10045000FF352B432E4D6A602E4AAE602A602B6119
:100460005B464A46FB18DB0313402B4A2B4D1A43CD
:1004700094463A1D92008A186A60AE602C60644609
:100480002C61274C1C43274B5A60274A9E601A60F8
:100490001C6186230522DB00C250043A1300444647
:1004A000BA40A3400868134303430B6000201F4970
:1004B00000F008F9D023802080211D4C1B062278F3
:1004C00080048901002A04D05861D9612278002A69
:1004D000FAD19861D961F9E7A0860100DC640010C7
:1004E00028660010000050F00003002000040020E7
:1004F000000054F001000420680D0020E0010020FD
:100500001C6600100000E0AF3FF8DFFFD9090000D3
:100510004000005080030020D919000080000050E6
:10052000D9110000C00000508004002000001150CC
:10053000E31500200048704710680010004870471D
:10054000F866001000487047EC660010032903D8D5
:10055000024B8900C85870470020FCE7D86600109D
:10056000042903D0072905D0012902D10022034B19
:100570001A7070470122014B1A70FAE7E315002048
:100580000322014B1A707047E0150020F02310B5CC
:1005900014000221034A5B0003F068F9024B1C605F
:1005A00010BDC046F8130020CC1300200D4B10B531
:1005B00004001868FA230C4A4343116810685B1A58
:1005C0001B14C01A7D21C00205F062F9074A03011D
:1005D00013801B0C937083210423200002F046FF3C
:1005E00010BDC046CC130020EC130020E8130020FF
:1005F00010B50400022903D101220E4B1A7010BD60
:1006000001220D4B02211A70F0230C4A5B0003F00B
:100610002DF90B4B7D211868C00205F061F9094ADC
:10062000030113801B0C937083210423200002F02C
:100630001DFFE4E7E0150020E2150020F81300207C
:10064000EC130020E8130020022903D00022034B02
:100650001A7070470022024B1A70FAE7E215002068
:10066000E0150020022905D0812900D07047034BF6
:100670001A60FBE7024B1A60F8E7C046E41300205B
:10068000EC130020022906D00020812900D07047F9
:10069000024B1868FBE7024B1868F8E7E4130020E8
:1006A000EC130020022905D0812900D07047034BAC
:1006B0001360FBE7024B1360F8E7C046806600104A
:1006C00040660010F0B50E0083B01E4904000427F8
:1006D00001F0CCF980221C4D92002B0020001B4918
:1006E000009701F06BFA0100200001F0E7F9802289
:1006F0002B00920020001649009701F05FFA0100DC
:10070000200001F0DBF980222B009200200011492B
:10071000009701F053FA0100200001F0CFF920000A
:100720000D4901F0E5F920000C4901F0E1F9200044
:100730000B4901F0DDF9310020000A4A01F00CFA02
:1007400003B0F0BDB4660010E4010020781300206F
:1007500094130020B0130020F801002000020020B4
:10076000F001002061050010F8B5170045002918B8
:10077000C9011A4E091A89007418A268E368D219CF
:10078000DB1BA260E36019D1227D002A13D1E3882C
:10079000002B02D0735C7F2B14D8114B2D189C4674
:1007A000ED012D1AAD00761966443378032B08D17C
:1007B0000023337005E0237500220023802102F01E
:1007C00055FEF8BD064B00229C460423644423706A
:1007D0000021002303F04AF8F3E7C046740D00201F
:1007E0001E040000F0B545464E46DE465746E0B5CD
:1007F000602689B000930B7805000C0090461E40DF
:10080000202E67D0402E13D0002E5BD103271F402F
:10081000012F00D1BEE0022F00D117E1002F51D1EE
:1008200062784988092A4DD8C8489300C3589F4622
:10083000C74B9B46430001931B18DB011B1A9B000F
:100840005B449B695A69002A00D18FE0487811798E
:10085000884200D121E1DB69002B04D061781A784D
:10086000914200D184E2BB495A468C46019B5B19F8
:10087000DB015B1B99469B00D21862441278002A68
:1008800020D0B54900268C4663445B441F00A24635
:100890003B68002B11D09C68002C0ED0424651467C
:1008A0002800009BA047002800D171E0A94A4B46D0
:1008B00094469B005B4463441A780136F6B20437D1
:1008C000B242E5D8002009B0F0BCBB46B246A9460A
:1008D000A046F0BD03221340012B20D0022BF1D102
:1008E00042001218D201121A9A489949844692007D
:1008F0008B18634418780028E4D0974B9C4600235B
:10090000624452181168002903D04E68002E00D0AE
:1009100094E00133DBB204329842F3D1D2E74200D3
:100920001218D201121A8B488949844692008B18FA
:10093000634418780028C5D0874BFF279C460023C6
:100940006244AC462500040052181168002907D003
:100950000E68002E04D0087EA988394088426BD0EA
:100960000133DBB20432A342EFD1ABE79A69002A2C
:1009700000D170E748789179884200D06BE7A3886E
:10098000072B9FD14146938812680A60009A136032
:10099000012098E74B8803938B8802936C4B9B460E
:1009A000430001931B18DB011B1A9B009A466B4BFB
:1009B000DA4453441878994653469B695B689847D4
:1009C000674B53441B78002B00D17BE76B461A7AA8
:1009D00063780A2B00D16BE200D9E7E1002B00D14C
:1009E00072E2062B00D06DE7039B1B0A212B00D17E
:1009F00071E3222B00D065E7564859468446019B97
:100A00005B19DB015B1B9B00C91861440C78002C4F
:100A100000D157E750498C4663445B44196800296C
:100A200004D0087E904201D100F0F3FB0136F6B20B
:100A30000433A642F2D145E72C0065464246210028
:100A40002800009BB047C043C00F3CE743001B1881
:100A5000DB01444A1B1A9B009B5C002B00D131E751
:100A600066780979012E00D11BE2032E00D111E234
:100A7000002E00D026E706ABDC1D220002F0D8FCD9
:100A800043461A6823780120591E8B411370434650
:100A90001B685E70009B1F6015E7A388042B16D0AF
:100AA000052B00D00EE76388D2689B009A585378D4
:100AB00011781B020B439178012009041943D37864
:100AC0001B060B4341460A60009A1360FBE69268DE
:100AD000EDE7012900D17FE00023009A0120136097
:100AE000F1E6434600221B681A70194B1E4A9B46CA
:100AF00094466B0001935B19DB015B1B9B005B441D
:100B000063441B78002B05D0434601211A681378F3
:100B10000B431370154A019B94465B19DB015B1B69
:100B20009B005B4463441B78002B05D043460221A5
:100B30001A6813780B431370434600221B68012088
:100B40005A700223009A1360BDE6C0462468001064
:100B5000740D00207404000024040000230400002D
:100B60001C040000901100201F040000210400005C
:100B7000FF231A000A400B4200D003E26B005B190E
:100B8000DB01D7495B1B9B005A54009B01201A6074
:100B900099E643461A686B005B19DB01D0495B1B81
:100BA0009B005B5C012013700123009A13608AE6AE
:100BB0000B0A0F2B00D985E6CA4A9B00D3589F46E3
:100BC0006B005B19DB01C84A5B1BC9B29B002800A4
:100BD000995402F06FFB7FE7032A00D106E300215E
:100BE0006B005B19DB01C14A5B1B9B00D318C04A39
:100BF0009A181170BF22D200944663441B680A31D0
:100C00002800984768E76B005B19DB01B74A5B1B5C
:100C10009B00D21893691B6A002B00D152E609CBC6
:100C200042461060009A012013604CE66B005B198D
:100C3000DB01AE4A5B1B9B00D2189369DB68002B7B
:100C400000D13FE6AB498C466244107898470028B3
:100C500000D137E6C37882781B021343E0E76B00CC
:100C60005B19DB01A14A5B1B9B00D318CCB29B69CB
:100C7000EE2C00D1D2E21E69002E00D122E69E4B5E
:100C800021006B43D3189B4A944663441878B047BD
:100C9000051E00D116E6002C00D1F1E205F0B4FBF0
:100CA000802280B2431C5B009BB2D200934200D9E9
:100CB00008E64246126803211370424612689C46B9
:100CC00051700022474616000139904200D104E7D6
:100CD000AB5C3C68013263543C686418667094B243
:100CE0000231A042F4D86346F7E66B005B19DB01E2
:100CF0007E4C5B1B9B00E3189A695268002A00D166
:100D0000E0E57C498C46634418789047002800D180
:100D1000D8E50121C37882781B021343764A6A43DF
:100D2000A418764AA518C27992110A402A70842222
:100D3000D2009446C279644452110A4022706FE78F
:100D4000280002F0BDFA6B005B19DB01674A5B1BF0
:100D50009B00D218674BD318187093691B68002B3F
:100D600000D1AFE59847002800D1ABE5037857E7FD
:100D7000A288022A00D0A5E59A79597912020A437D
:100D8000D9799878090411431A7A000212060A43A5
:100D900059780843D9781B79090401431B060B4392
:100DA00041460B60009B01201A608CE50B2B00D0A4
:100DB00088E55349A3788C465244624413700393E8
:100DC000217902914946087851468B695B689847BA
:100DD00003780700002B00D1DFE1039A0024002AEA
:100DE00000D1A6E1002290469146FF3231000492E4
:100DF00016002A008A464546904611E0052A1ED074
:100E0000022A04D10024FD78BA782D021543E41893
:100E1000FF18AC4201D3002D78D13B78002B75D060
:100E20007A78042AEAD1FA78BE780492029A964235
:100E3000EDD1049A03998A42E9D1B946E7E7029ACB
:100E4000B242E4D1039A04998A42E0D17B793A799B
:100E50001B02134302225905DB049B0FB87805934C
:100E6000BA56490D002A00DAE0E10C22434642431B
:100E700021485843234B12185A44D018224B018062
:100E80009C46059B624413703900404602F01AFAF2
:100E90003B78BCE76488002C6ED00023009A136076
:100EA00010E56388002BF8D102F096FA01200AE5DC
:100EB000134943468C46524462441B681278012011
:100EC0001A70009B1F60FEE44246126801201370F6
:100ED0004246126853700223009A1360F3E4C0463E
:100EE000901100204C68001091110020740D00201A
:100EF0002104000023040000FC0500001F04000082
:100F0000640400003A050000390500004546019BD5
:100F1000CF4A5B19DB015B1B9C0098465B469446FD
:100F20001B1963441A785646002A00D1D4E54B4673
:100F3000002B00D13BE1C74B4F469C46A946644479
:100F40005C442368002B11D0DD68002D0ED0B978E9
:100F50001B7E99420AD13A0008214846A847BC4A5C
:100F6000434694469B005B4463441A780136F6B2CC
:100F700004349642E5D3AFE502F004FA009B012069
:100F80001C60A0E4CBB29946B34BB44A9B466B00BD
:100F900001935B19DB015B1B9B005B449A189B6907
:100FA00010785B68984703780400002B00D174E741
:100FB00000229046FF323800029217002A000026D5
:100FC000454600219046824613E0022A08D16779FF
:100FD000B94505D100260121E578A2782D021543F7
:100FE000F618E418AE4201D3002D36D12378002B39
:100FF00033D06278042A2DD0052AE6D1B945EFD145
:10100000029A002AECD1637922791B02134302224F
:101010005905DB049B0FA0780393A256490D002AC3
:1010200000DA42E10C22434642438D4858438D4B3F
:1010300012185A44D0188C4B01809C46039B624482
:1010400013702100404602F03DF9414241412378AE
:10105000C9B2C5E7E2780292C2E757464546002981
:1010600000D11AE75B4649467D4C804A6C431B1908
:101070009A18117000217E4A9A181170744A944689
:1010800063441A78734B9C4664445C448A4218D08B
:10109000019B5E19F601761B2368002B0CD0DB68E0
:1010A000002B09D00022072128009847684AB30086
:1010B00094465B4463441A780137FFB20434BA4261
:1010C000EAD8BF22D2009446654B07216B435B44AC
:1010D00063441B6894E50378002B01D1FFF7F2FB12
:1010E00000240025FF2613E0022904D10024C5783E
:1010F00081782D020D43E418C018AC4203D3002DB3
:1011000001D0FFF7DFFB0378002B01D1FFF7DAFBFB
:10111000417804290BD02129E6D1B242EBD14346D4
:1011200018600378009A01201360FFF7CCFB8678E3
:10113000E1E7002292469146FF3290462A0055464A
:10114000B2464646904613E0052A1DD0022A04D135
:101150000024FD78BA782D021543E418FF18AC423C
:1011600002D3002D00D0D1E63B78002B00D1CDE694
:101170007A78042AE8D1BE78029AB242EDD1FA78A0
:10118000002AEAD1B946E8E7029AB242E5D14046E0
:10119000B97802F0F5F83B78DFE72D4A304B9446FA
:1011A0006B435B4463441A78002A00D194E4019BAA
:1011B0005B19DB015F1B274BBC009C4664445C440D
:1011C0002368002B0CD0DB68002B09D000220821FB
:1011D000280098471E4ABB0094465B4463441A7833
:1011E0000136F6B204349642EAD375E46B005B191B
:1011F000DB015B1B184A9B00D2181E4B2800D3183A
:101200001970BF23DB009C4662441368083198477D
:1012100062E442460B6913604B695EE45B69002B34
:1012200001D1FFF74FFB18680378F9E47F224346AA
:101230001040733A42430A4858430F4B12185A441D
:10124000D0180E4B01809C46059B624413701BE630
:101250007404000024040000740D00202304000026
:10126000FC0500003A050000390500001C040000E0
:1012700022040000210400007A0400007904000028
:1012800043461A68042313704246032112685170C2
:1012900042460178126891704246417812680120F6
:1012A000D170009A1360FFF70EFB7F224346104077
:1012B000733A424306485843064B12185A44D01812
:1012C000054B01809C46039B62441370B9E6C046FF
:1012D000FC0500007A0400007904000070B50400E9
:1012E000101E28D061000919C9011C4E091B890074
:1012F0007518AA68EB6812181B1AAA60EB6022D155
:101300000B001C339B19AB600B00083110339B1989
:101310008A1920002900FFF765FA114B9C466544A5
:10132000002815D0032300222B70802100232000E9
:1013300002F09CF806E063001B19DB01094A1B1B45
:101340009B00985470BD0021200002F08FFAF9E74D
:1013500028708021200002F015F8F3E7740D0020BA
:101360001E04000092110020002143001B18DB0125
:10137000074A1B1A9B00D318064A10B59A18117019
:10138000BF22D200944663441B680631984710BDC3
:10139000740D00202204000043001B18DB010B4ADF
:1013A0001B1A9B00D3180A4A10B59A181278002A03
:1013B0000AD00121074A9A181170BF22D200944620
:1013C00063441B680431984710BDC046740D00206B
:1013D0001D04000022040000F0B557464E46454665
:1013E000DE46E0B50600002183B001F063FF002275
:1013F0007700BB19DB019B1B9D0099468323924616
:1014000000222F49DB00EB185B181A8052460B1F95
:101410005C1998462B4BE3181A702B4BE3181A7083
:10142000A3691B68002B49D0002098476A46C379FE
:1014300069469380254B524600936B4630009A7163
:1014400001F040FF6B465246694630009A7001F049
:1014500039FF1F4B9C4664442278002A1AD01D4B4A
:1014600000249C46654445442B68002B0DD0DB6866
:10147000002B0AD00022012130009847144A4B4625
:1014800094469B00434463441A780134E4B2043523
:101490009442E9D3BF22D2009446BB19DB019B1BC7
:1014A0009B0043446344012130001B68984703B00C
:1014B000F0BCBB46B246A946A046F0BDFEE7C0461A
:1014C000780D00201E0400002304000007058000A2
:1014D0007404000024040000F0B5DE4657464E4672
:1014E00045460400E0B545002818C001CA4E001B5F
:1014F00083000A00F1180F009B460323574085B074
:101500003B4200D08AE013680B6053684B60802038
:101510002F19FF013F1BBF00F319DA88C000824278
:1015200000D8ACE0F75D7F2F00D8CDE05846DA60F8
:101530001A6100221C3037189F601A7503975846AD
:101540001030331803AA2000FFF74CF92B19DB01E8
:101550001B1B9B00F318002800D153E11A69DB889C
:10156000934200D9A9E080212A19D201121B9200CE
:10157000B218D360C9008B4200D9A0E092689046AF
:10158000039A904531D003274046B9465040074062
:10159000BA464F46C4461100074200D09FE00021E2
:1015A00040468B4603318C460092384200D13AE1E6
:1015B0005946A346A946444617001500D84609E0F7
:1015C0006A5C0130625462460137013B01311042CE
:1015D00000D125E1002BF3D144464D462A19D20112
:1015E000121B9200B218D3689268594259412D19C2
:1015F000ED012D1B8948AD007519490001312818EE
:1016000001708021200001F031FF2B69EA889A42A5
:101610005ED99B065CD101232B7559E01A4200D19B
:1016200071E11078571C08701F4200D1AAE1507870
:10163000971C48701F4200D1A9E19078D71C887090
:101640001F4200D1A8E1D078171DC8701F4200D1F9
:10165000AAE11079571D009708711F4200D1C4E11B
:101660005079971D487118003840844600971F42F2
:1016700000D1CAE197798F71D379CB7147E71C20EC
:101680008446DC44B4446046986000201875604687
:10169000DA601A610390002A00D150E7F75D7F2FCE
:1016A00000D94CE75D492000591802230B70130044
:1016B0000021624602F0DAF80AE0130053E7574BC4
:1016C0009C460023624413708021200001F05AFEE2
:1016D00005B0F0BCBB46B246A946A046F0BD032209
:1016E00060469046A146002B08D177E73F78013B42
:1016F000013101301770002B00D102E14446020095
:101700000F002142F2D184464C460F2B00D876E1DF
:1017100010204042804698444046000901300001B4
:10172000604499468A4603000F003868010A107029
:101730005170010C000E9170D0707868010A107120
:101740005171010C000E9171D071B868010A1072CC
:101750005172010C000E9172D072F8681037010AB4
:1017600010735173010C000E9173D07310329342B9
:10177000DBD10F2247461000974351466246103195
:1017800010324B46D219CF190C211840194200D102
:1017900007E13B68190A13705170190C1B0ED370C6
:1017A000031F9170032B13D97B68190A13715171B0
:1017B000190C1B0ED3710300083B9171032B07D941
:1017C000BB68190A13725172190C1B0E9172D372F5
:1017D00003218308013B9B00014004320437D218E7
:1017E000FF184B1E002900D1F8E639781170002B44
:1017F00000D1F3E679785170012B00D1EEE6BB7889
:101800009370EBE6054A80219446634418702000EB
:1018100001F0B8FD5CE7C046740D00201E04000016
:1018200044464D4600970F2B40D910225242934612
:101830009B445A460F2A00D8BBE000990A000F3299
:10184000121A1E2A00D8B4E00A000243520700D040
:10185000AFE05A461209934601225A44914600933A
:101860004F460A00B146030056468C46A046AA469B
:1018700001900136146855689068D1681C605D60FD
:101880009860D96010321033BE42F2D362461032F3
:1018900044464E4655461700009B01980F221340C0
:1018A0005A46103012018018BA180092032B17D92B
:1018B000009F3A6802601A1F032A07D979684160BD
:1018C00019000839032901D9B96881600321009FF3
:1018D00092089200043004378018BA180B40009226
:1018E000002B00D17AE600990A780270012B00D112
:1018F00074E64A784270022B00D16FE68B788370D1
:101900006CE64C466AE608200B0080461768380AE9
:101910005870380C987040461F703F0EDF700828D2
:1019200008D15268170A1A715F71170C120E9F7155
:10193000DA71ECE5101D00900320824640465746C0
:1019400038408446181D814647465046384200D1EB
:10195000DDE5107918716046012800D1D7E5053220
:1019600090460222524292460533D44442461278AF
:101970001A706346002B00D1C9E54A46009B9B784C
:101980009370C4E507203A0080464B1CBEE7062052
:101990003A0080468B1CB9E705203A008046CB1CF4
:1019A000B4E70100431E1DE704203A0080460B1DEA
:1019B000ACE75F46009A3F09BB463F01BC461700B3
:1019C0001037BC440100804660469C4613680B609B
:1019D00053684B6093688B60D3681032CB601031D2
:1019E0009042F3D16346404658E74B1D9946931DFC
:1019F000527998464A7101228B1D9446B6E7180029
:101A0000032B00D9C5E6013BEFE68B1D9946D31D9C
:101A1000927998468A71CB1DA8E7C0467F230B4078
:101A200010B55C00E41843001B18DB011B1A1B19DE
:101A3000034C9B001B59002B00D0984710BDC0469B
:101A4000F41100207F230B4010B55C00E418430024
:101A50001B18DB011B1A1B19034C9B001B59002B85
:101A600000D0984710BDC046B412002070B54400A5
:101A70002418E4010D4B241AA400E4180D000021E1
:101A800020000B4A04F024F88F238022DB00E318A7
:101A90001A709023074ADB00E3181A60A823DB00C2
:101AA0009C46054BA5616444236070BD740D002005
:101AB000FC05000069070010DD12001010B50A4C8B
:101AC0004300A4461B18DB01084A181A8300D318E8
:101AD00063441C7800190930FF3080000C7612181E
:101AE000013451601C7010BD74040000740D00209E
:101AF0000023CB5630B50D784C68002B13DB430028
:101B00001B18DB016900181A4919124A4018800095
:101B10001318A722D2009A181570A822D200944652
:101B200063441C6030BD7F232B405900C91843001B
:101B30001B18DB011B1A074A5B189B00D2188F2366
:101B4000DB00D3181D709023DB009C4662441460B8
:101B5000E8E7C046740D0020F8B5041E00D0FEE78B
:101B6000124B134E5960BF23124FDB00F250F15D50
:101B7000002914D0104BF5182B68002B07D0DB6818
:101B8000002B04D00B21002200209847F15D013486
:101B9000E4B204358C42EFD3BF23DB00F2580B21B3
:101BA00000209047002001F025F9F8BD70130020B7
:101BB000740D0020740400002404000070B50400BB
:101BC000080069460E7C802189008A420ED30021DC
:101BD0004160002181600649064DC1600649E4006C
:101BE00005600D192E71EA80635070BD0349EFE75F
:101BF00089230010FD1C00106C0D0020111C00102A
:101C00007047C046002070477047C04600207047AC
:101C1000F0B51E00002383B00193CB7804001500BB
:101C20000F79012B4FD14978012922D07F31C9B2D8
:101C300003291BD83900FEF725FD03000190286811
:101C40000321820734D1084237D0421C03700A4274
:101C500041D01A04120E42700A00841C22400C4229
:101C600043D01B021B0E837003233360002003B09C
:101C7000F0BD1168032301A88A0715D0194225D0A9
:101C80000D784A1C05701A422AD04A788D1C427081
:101C90001A002A401D422CD08B7883703900200016
:101CA000019AFEF7DFFCE1E7032203F017FFF5E7F7
:101CB000032201A903F012FFD6E7022201A9013293
:101CC00003F00CFFD0E701204042D0E702220132AE
:101CD00003F004FFE2E76B461000591D0122EEE716
:101CE0006B461100581D0122F1E76B462000991D3B
:101CF000E5E76B462900981DE9E7C046F0B5454683
:101D0000804657464E46DE469A4600239146424656
:101D1000E0B587B00493CF788C783F023B0A9B46AE
:101D2000BE4B3C43D200A4469C1826794879002E2D
:101D30001FD000249D5804E00134E4B20335B442BE
:101D400017D06F788742F7D12C78AD78012C10D05E
:101D5000062C11D00A2C07D0002007B0F0BCBB46DF
:101D6000B246A946A046F0BD5B46012B6DD0022BC2
:101D700039D001204042F0E76046C4B258460128FD
:101D80003BD00228F5D19B188022DB88487892004E
:101D9000934200D39AE0822800D1D5E000D9EEE04A
:101DA000012800D13EE18128E3D1220029004046EC
:101DB000FFF728FF002801DA0130FF304B46000210
:101DC00080B205A908801868032302001C004A405D
:101DD0001440134200D187E1022203F07FFE022368
:101DE00052461360B8E70B787F2BC2D94B461A686E
:101DF0000123137052461360AEE79A188023D288ED
:101E000048789B009A420FD2012812D08128B0D185
:101E1000220029004046FFF7F9FE4B461B685A4650
:101E2000187053461A6097E70128A2D10B787F2BD0
:101E3000EED84B461B6829001B7840465A1E93413A
:101E40002200DBB2FFF7E0FE86E74B78012B00D1E2
:101E500086E0022B8DD10B787F2B00D87CE7002306
:101E60002900404605AA0593FEF71CFC4B46059A3F
:101E70001968537810781B0203435E00F618032399
:101E800008001C005040B60004400F001500A44696
:101E90000236034200D019E1194200D14AE2501C37
:101EA00081460320002335000C0080464846C718B1
:101EB000D05C0134C8544046013D044200D125E1C4
:101EC0000133002DF2D153461E6045E7012815D09D
:101ED000022800D04DE70B787F2B00D83CE74B461B
:101EE00001221B681A804E4A5A8000229A800132D1
:101EF000FF32DA800823524613602DE70B7805AED7
:101F00007F2B00D9C0E04B461B680322990700D104
:101F1000B7E0134200D1DEE103201A78591C327079
:101F200002000A40014200D18DE05B78737000210D
:101F3000725E3388002A00DA96E01B0A220029002C
:101F40004046FFF75DFE07E74B4600221B681A700C
:101F50004B461B689C325A7053465A461A60FBE641
:101F60000B7804AC7F2B18D84B461B6803219A07CB
:101F70003BD11A6829004046FEF774FBECE6832843
:101F800067D0842800D0F4E64B4600221B681A7004
:101F90004B461B6801325A7021E729004046FEF784
:101FA00071FB4B461B68032104909A0700D085E023
:101FB0000B4200D188E05A1C18700A4200D1DCE1C3
:101FC0000104090E597003219A1C0A4200D1C7E18D
:101FD0000202120E9A70DA1C0A4200D1BDE1000E14
:101FE000D870042352461360B6E60B4241D01878ED
:101FF0005A1C20700A4200D198E159789A1C6170ED
:1020000003210A4200D183E19A78A270DA1C0A42C5
:1020100000D179E1DA78E270049AABE76C0D002028
:10202000009CFFFF4B461B6805AE9A0729D0032092
:10203000034200D14FE11A78591C327002000A4065
:10204000014200D071E704AB581D013203F046FD98
:102050006DE74B461A68002313704A4612685370A6
:1020600053465A461A6077E6C64A944663441B12A2
:1020700064E71A681B882380130C120EA370E270A9
:10208000CAE71A78327050E7220029004046FFF76D
:10209000B9FD002801DA0130FF304B46000280B262
:1020A0003080186803230200190072401140134267
:1020B00025D00222310003F011FD90E6020A5A7089
:1020C000020C18709A708AE718608AE730000321C2
:1020D0002A003B000D427BD01278013801350137D0
:1020E0001A700028F4D1EEE6184200D1E9E0421C53
:1020F00004701A4200D1E6E04B7843706FE6184254
:1021000000D1E3E001707378437068E62B000F2D77
:1021100034D92B00103B0F2B00D8E0E03B000F33ED
:102120001B1B1E2B00D8DAE03B0023435B0700D0CB
:10213000D5E0A346B8462B0903934346186859686F
:102140009A68DB68009201935B46186059600099B9
:10215000019A9960DA60012399460F33CC4499467D
:10216000039BCB44C8449C45E7D310370F23039A05
:102170001034013A12012B40A418BF181D00032B84
:1021800015D93A6822601A1F032A07D97A68626053
:102190001A00083A032A01D9BA68A26003251D4033
:1021A0009B08013B9B0004340437E418FF186B1EA6
:1021B000002D00D187E63A782270002B00D182E60C
:1021C0007B786370022D00D17DE6BB78A3707AE640
:1021D0000F2800D8BBE0102252429046804442466D
:1021E0001109013109018C462C00BC4421680A0AFE
:1021F00019705A700A0C090E9A70D97061680A0A2F
:1022000019715A710A0C090E9A71D971A1680A0ADA
:1022100019725A720A0C090E9A72D972E168103456
:102220000A0A19735A730A0C090E9A73D973103378
:102230009C45DBD10F23424619000C249A430140F0
:1022400010371035BB180440AA180800002C27D0FE
:102250001068040A18705C70040C000ED870081F17
:102260009C70032813D95068040A18715C71040C1F
:10227000000ED871080008389C71032807D99068AF
:10228000040A18725C72040C000E9C72D87203204F
:102290000840890801398900043304325B18521858
:1022A000411E002800D10EE614781C70002900D1D0
:1022B00009E651785970022800D104E692789A70A4
:1022C00001E60B7803704B78437088E53378037030
:1022D0007378437083E5190030000122B5E62200CF
:1022E0002909039101393B00090110377918186851
:1022F00010605868506098689060D8681033D0605B
:1023000010328B42F3D131E7DB78E370049A31E687
:10231000022104AB5B1810781870507858700229AD
:1023200000D179E692789A70049A23E604AB0321EF
:102330000133F0E735000C0017000F2E00D9E8E656
:102340003300032E00D91CE70225012333E70100E7
:10235000032800D97CE7411EA6E7E278DA7040E660
:10236000012104AB0233187810705878507001299D
:1023700000D136E69B78937033E604AB022101333B
:10238000F1E7C046FF00FFFF10B5082900D010BDDF
:10239000D3789178002B02D0FEF72AF9F7E7FEF701
:1023A00053F9F4E7F0B5DE4657464E464546E0B5EC
:1023B000836941791B6885B0802900D185E09B0540
:1023C0009B0D002943D00F244AB20C40002A00DBA9
:1023D00024E1E500A24A2B199B00D31818699E88B6
:1023E000B04200D882E0D968801B8C46B444614674
:1023F000D96059691861891959613300864200D939
:10240000030099B28E4200D980E28020C0000143CF
:10241000281980001018477A0E007F2F00D982E219
:102420002D19AD005219100024300178D2690B002B
:102430005C1EA34101245B033343614001701360C0
:1024400005B0F0BCBB46B246A946A046F0BD9321FC
:10245000834A8900515888464646982130008900B1
:102460005158484089460F0003210C000440A446FF
:10247000014243D140464D461C000E4200D1C6E108
:10248000160043464A4600210327B146A04608E00D
:10249000565C01305E540135013C0131384200D1B7
:1024A000B3E1002CF4D143464A46952094248000A1
:1024B0001158A400591811501059C31A1351002073
:1024C0000A000021FFF7BEFABAE7654B654A9A5C3D
:1024D000D209012A00D189E11A78002AB0D01A78ED
:1024E0006149D2B20A6000221A70A9E75A698218BB
:1024F00000205A611861FFF791FAA1E71D0003243B
:10250000002B08D1D1E7471C0078013D4E1C087014
:10251000002D00D1B4E2310038002742F3D10F2D55
:1025200001D800F058FC102040428046A8444046A4
:102530000009013000018446B44460463C009C46DA
:10254000914603002068020A08704A70020C000ECF
:102550008A70C8706068020A08714A71020C000E25
:102560008A71C871A068020A08724A72020C000ED1
:102570008A72C872E0681034020A08734A73020C47
:10258000000E8A73C87310319942DBD10F21404687
:10259000103688430C0031180C26103763464A4623
:1025A0002C4038182E4200D145E305682E0A0D70E4
:1025B0004E702E0C2D0ECD70251F8E70032D13D94D
:1025C00045682E0A0D714E712E0C2D0ECD71250011
:1025D000083D8E71032D07D985682E0A0D724E7243
:1025E0002E0C2D0E8E72CD7203252540A408013CC1
:1025F000A40004310430091900196C1E002D00D10B
:1026000053E705780D70002C00D14EE745784D70EA
:10261000012C00D149E78078887046E7E5002C1945
:1026200093250F4AA4001419AD0065192D68A8461A
:102630009825AD00AC46032564442468474626002F
:10264000A1462C007E403440A446354200D13EE1F4
:1026500003241E1EA44698464C460FD19BE0C0465C
:102660008006002084040000000011506C1C2D78AE
:10267000013E4F1C0D70002E00D170E26346390000
:1026800025001C42F2D14346A3460F2E00D8A9E3F1
:1026900010246442A046B0444446250901352D016A
:1026A000AC465D46BC4491465C46624682469C46CA
:1026B0002B001D68280A0D704870280C2D0E88709C
:1026C000CD705D68280A0D714871280C2D0E887137
:1026D000CD719D68280A0D724872280C2D0E8872E3
:1026E000CD72DD681033280A0D734873280C2D0E47
:1026F0008873CD7310319142DBD10F21A3460C00BA
:10270000344063464546A4465C468D43103410373A
:10271000791965190C2450464A46344200D1AFE27B
:102720002C68260A0C704E70260C240ECC70644661
:10273000043C8E70032C13D96C68260A0C714E7100
:10274000260C240ECC716446083C8E71032C07D9EC
:10275000AC68260A0C724E72260C240E8E72CC7255
:10276000644603262640A408013CA4000431043535
:1027700009192D19741E002E00D185E12E780E70D6
:10278000002C00D180E16E784E70012C00D17BE1ED
:10279000AC788C7041790F2493250C40E000804682
:1027A000001980001018AD0046193568ED18356025
:1027B0009525AD0045192E689E192E609425AD0013
:1027C000AC468444654667462D68ED1A3D60912706
:1027D000BF00BC4660440088984202D8002D00D05B
:1027E000C2E132000020FFF72DF929E619699A8825
:1027F0005869914200D88DE0891A19611218802118
:1028000000205A61FFF70AF91AE643464A460F2CA0
:1028100036D92700103F0F2F00D8D6E129000F31FD
:10282000091A1E2900D8D0E101002943490700D028
:10283000CBE139098946012149442E00A24607000F
:1028400064468046AC4693460D00019301343068DF
:102850007168B268F36838607960BA60FB601036FE
:102860001037A542F2D84046654654465A46019B69
:1028700010300F210C4049461035090140186D18E1
:10288000032C14D929680160211F032907D96E6818
:1028900046602600083E032E01D9AE6886600326F6
:1028A0008908890004300435344040186D18002C24
:1028B00000D1FAE529780170012C00D1F5E569789D
:1028C0004170022C00D1F0E5A9788170EDE52F422E
:1028D00000D154E203271D00BA46170044464E4675
:1028E00043464A460021B946A84609E0575C0134F0
:1028F0005F5457460136013D01313C4200D1C5E0ED
:10290000002DF3D143464A46417944E78820C0016F
:1029100001437DE50A1800210020196180315A61C8
:10292000FFF77CF88CE56646002E00D1A4E0032773
:10293000B946006A804670400740BA464F46074293
:1029400000D17BE103208446002B00D194E0404677
:10295000A946904607E03F78013B013601301770E9
:10296000002B00D108E26546020037002E42F2D16A
:10297000C4464D46804662460F2B00D826E21027FB
:102980007F42B94699444F463F0901373F014744CA
:1029900092469C468B463A0033001F68390A0770FE
:1029A0004170390C3F0E8170C7705F68390A07713A
:1029B0004171390C3F0E8171C7719F68390A0772E6
:1029C0004172390C3F0E8172C772DF681033390AC9
:1029D00007734173390C3F0E8173C7731030824205
:1029E000DBD10F20634607001F40BC464F4687439C
:1029F000404610361030C019F7190C265946524679
:102A00001E4200D1E0E13B681E0A037046701E0CB6
:102A10001B0EC3706346043B8670032B13D97B687F
:102A20001E0A037146711E0C1B0EC3716346083BE0
:102A30008671032B07D9BB681E0A037246721E0CEF
:102A40001B0E8672C372664603233340B608013EEE
:102A5000B600043004378019BF19002B0CD05E1E5D
:102A6000B4463E780670012B06D07B7843706346EF
:102A7000012B01D0BB788370802636020E43CFE451
:102A8000380031006C1EB9E5417984E643464A4678
:102A90000F2D3FD9102149428946A94449460F29A3
:102AA00000D8ACE031002143490700D0A7E0310055
:102AB0000F31091B1E2900D8A1E0494609098946A2
:102AC00001214944884601934346A84665462100B2
:102AD000A44682462C00300093461D000296013425
:102AE000026843688668C7680A604B608E60CF6082
:102AF00010301031A542F2D86446454650465A4639
:102B0000029E019B10360F210D40494610340901E9
:102B100064187618032D14D931682160291F032900
:102B200007D9776867602F00083F032F01D9B7687E
:102B3000A760032789088900043404363D406418DF
:102B40007618002DA0D031782170012D9CD071789D
:102B50006170022D98D0B178A17041791BE62500F3
:102B600043463900741E06E60300A84200D92B0034
:102B70009BB2984225D88021C900194343469C48FE
:102B80001B1984469B00D31863441B787F2B02D902
:102B900080231B02194399234444A700D7199B00A3
:102BA000F818027813005C1EA3415B030B4301215C
:102BB0004A40027097229200944667443A68136034
:102BC0003EE48821C9011943D8E70100380907010B
:102BD00081460800BC461030844467462E009C465F
:102BE0003B0037680F6077684F60B7688F60F768A1
:102BF0001036CF6010318B42F3D1634639E6310095
:102C00004E463609B1463601B4460E001036B4447D
:102C10009046270062469C460B683B604B687B6091
:102C20008B68BB60CB681031FB6010378A42F3D1F0
:102C30006346424667E725006C1EDFE4404601908C
:102C40000320464683464846674630421FD00191DE
:102C50006146A4469146019A44460020E0469446C7
:102C600008E00A5C013622545A460137013B013024
:102C7000164208D0002BF4D1614644464A46FBE692
:102C80006646741E77E5614644464A4601960F2B18
:102C90003FD91020404283469B4458460F2872D9A2
:102CA0003800019E304340076DD138000F30801B43
:102CB0001E2868D958460009834601205844814699
:102CC000A046029154463100AA469C464D46380023
:102CD000914603970134026843688668C7680A60B2
:102CE0004B608E60CF6010301031AC42F2D31020B8
:102CF0004446804663464A465546039F0299B84477
:102D00000F2003405846019E07011036F01901902C
:102D10004744032B1DD93868019E3060181F804638
:102D200003280BD930007E68466008267642B446F8
:102D30009C446646032E01D9BE6886600326404641
:102D40003340019E8008800004363618043701960F
:102D50003F18002B00D18FE6581E8446019E38781C
:102D60003070012B00D187E67B78300073706346AA
:102D7000012B00D07EE67FE642464D467CE64E467D
:102D800044461D0084E6019E3800B14637005E4689
:102D90003609B3463601B4461026B0468044C444D2
:102DA0004E46914662469C4603683B6043687B60A2
:102DB0008368BB60C3681030FB6010378242F3D178
:102DC00063464A4601969BE7634646E6032B00D8D6
:102DD00045E69C4617E62C00032D01D9FFF7E5FBDD
:102DE0006C1E0EE4B446741E032E00D998E4C5E4AC
:102DF0004902000010B5C44C00212000C34A02F073
:102E000067FE9822C24B9200A3502362C14BC24A74
:102E1000E36197239B00E250C04BC14A2364A02387
:102E20009B00E250BF4BC04AE3639F239B00E250EC
:102E3000BE4ABF4BBF4822666366A823BE499B00BB
:102E4000E318186059608823BC4ABD48E250B22399
:102E5000BC4A9B00E2508423BB4ABC49E250B123E8
:102E6000BB4A9B00E2502300A83318605960BA2384
:102E7000B848B9499B00E31818605960D023B74A95
:102E8000B748E250C423B74A9B00E250CC23B64A6D
:102E9000B649E250C323B64A9B00E2502300F03308
:102EA00018605960CC23B348B3499B00E3181860FD
:102EB00059608C23B14A5B00E250D623B04A9B0094
:102EC000E2508A23AF4A5B00E250D523AE4A9B0012
:102ED000E2502300AD48AE493933FF3318605960E2
:102EE000DE23AC48AC499B00E31818605960B0235E
:102EF000AA4A5B00E250E823A94A9B00E250AE23B5
:102F0000A84A5B00E250E723A74A9B00E250230057
:102F1000A648A7498133FF3318605960F023A548BC
:102F2000A5499B00E31818605960D423A34A5B00AD
:102F3000E250FA23A24A9B00E250D223A14A5B004E
:102F4000E250F923A04A9B00E25023009F48A04989
:102F5000C933FF331860596081239E489E49DB00C6
:102F6000E31818605960F8239C4A5B00E2508623FE
:102F70009B4ADB00E250F6239A4A5B00E2509A4BF0
:102F80009A4A9B48E25084239A499B00E3181860B0
:102F900059608A2398489949DB00E3181860596002
:102FA0008E23974A9B00E2508F23964ADB00E25023
:102FB0008D23954A9B00E250944B954A0520E250A0
:102FC000944B954A6364A1239B00E250934B944A2F
:102FD000A366AA239B00E2508C23924AE250B323BB
:102FE000914A9B00E250B023904AE250BC23904AA1
:102FF0009B00E250D4238F4AE250C5238E4A9B00A7
:10300000E250F8238D4AE250CE238D4A9B00E250D5
:103010008E238C4A5B00E250D7238B4A9B00E25000
:10302000A0238A4A5B00E250E023894A9B00E250D9
:10303000B223884A5B00E250E923874A9B00E250B2
:10304000C423864A5B00E250F223854A9B00E2508B
:10305000D623844A5B00E250FB23834A9B00E25064
:10306000E823824A5B00E2508223814ADB00E2507F
:10307000FA23804A5B00E2507F4B804AE25086236D
:103080007F4A9B00E2508B237E4ADB00E2508F2375
:103090007D4A9B00E2507D4B7D4AE2507D4C2100F1
:1030A00001F0FAF8FF222100052001F009F8802242
:1030B000794B52041A60794B79491A6010000B68F9
:1030C0009843FBD19C220021764802F001FD80222A
:1030D00000215201744802F0FBFC09237149734A34
:1030E0004B6703338B670B3B0B6480239B05CB64DF
:1030F00090230520CA50012100F09AFF80226C4BDA
:1031000052020020DA6410BD800600208C0400000A
:1031100000011050800010508400105088001050A2
:103120008C001050080010500C001050100010506F
:10313000900010501400105094001050980010503F
:10314000200010509C00105018001050A00010508B
:103150001C00105024001050A4001050A800105063
:1031600030001050AC00105028001050B00010502B
:103170002C00105034001050B4001050B800105003
:10318000BC001050380010503C001050400010504F
:10319000C000105044001050C4001050C80010501F
:1031A000CC001050480010504C00105050001050EF
:1031B000D000105054001050D4001050D8001050BF
:1031C000DC001050580010505C001050600010508F
:1031D000E000105064001050E4001050E80010505F
:1031E000EC001050680010502C0400006C001050CF
:1031F00070001050F000105074001050F400105087
:10320000F8001050FC0010507800105074040000BA
:103210007C0010508001105080051050C0051050E7
:10322000000610504006105080061050C006105086
:10323000000710504007105080071050C007105072
:10324000000810504008105080081050C00810505E
:10325000000910504009105080091050C00910504A
:10326000000A1050400A1050800A1050C00A105036
:10327000000B1050400B105034040000800B105015
:10328000C00B1050000C1050400C10507C0400007B
:10329000800C1050253E001000E0004000F000407F
:1032A00008C00040000011500000105010D0010074
:1032B00000201150014B002019707047800600203B
:1032C0000220704730B54B790A791B028878134386
:1032D000CA7803217F255B05114042B205405B0D92
:1032E000002A2FDBEC00224A6419A4001219912451
:1032F000A400141923801F4BD4181F4B2170D3181E
:103300001870922301219B00D31819709723002174
:103310009B00D3181B68196096239B00D31819686B
:1033200000290DD098239B009C4662441268134BE1
:103330005340227892061343A022120613430B60D7
:10334000002030BDEC000A4A6419A40012199380D1
:103350000123917100211372D36950721960916930
:103360000029EDD0106A054B92794340E2E7C04650
:1033700080060020460200004902000000001050B4
:103380000020704780230A009A43131E0ED10F4A73
:10339000002918D001219166D9000D4ACB189B0055
:1033A000D218D369802212011A600AE049B20029BA
:1033B000F2DBDA00D318074A9B009B5880221201E7
:1033C0001A600020704702219166F2E70020115038
:1033D00080060020DC0800204B0613D04BB2002BE7
:1033E00012DBCA005218104B92009B189922002140
:1033F00092009A18117097229200944663441B68B9
:103400000A4A1A600020704780239943CA00521864
:10341000054B92009B181A00002124321170DB69C1
:10342000024A1A60EEE7C04680060020FFF7FFFF61
:103430004BB2002B0ADBCB005B180A499B005B58A0
:103440001B681B05DB0F0020137070478020814331
:10345000C800054B411889005B18DB691B681B0518
:10346000DB0FF0E7DC08002080060020F0B5DE4628
:1034700057464E4645467F20E0B5014085B0002ABC
:103480003BD0C800A34C4518AD0065192E7A002E1C
:1034900000D1BBE10026EA602B616E61002B3BD0BE
:1034A000AE8835009E4200D91D00ABB29E425AD86C
:1034B0008026F600334301934618B600A619777AA2
:1034C000BC466346019F7F2B52D8401880002418C9
:1034D000210024310A781300581E83410120424004
:1034E0000A705B03E2693B431360002005B0F0BC47
:1034F000BB46B246A946A046F0BD002B00D0ABE1CA
:10350000C800844C42189200A218157A002D00D1F0
:103510007CE1D3601361536143189B00E3189B88DF
:10352000002B1BD180228425D2002D0243189B0042
:10353000E3185B7A7F2B00D81500411889006118C9
:1035400008002430027813005C1EA341012462406D
:1035500002705B03CA692B431360C6E78822C42547
:10356000D2012D02E2E78826F60133430193A3E757
:10357000336A16001F009C460323994657403B4080
:103580009A464B463B4200D1A1E0C846002D00D1EF
:1035900098E0019A63468946944607E07E1C3F788E
:1035A000013D531C1770002D00D128E141461A003F
:1035B00037000E42F2D1029363460193029B4946C3
:1035C0009C460F2D00D84AE110235B429946A9443E
:1035D0004B461F09019B83469A46330001373F0142
:1035E00067440197884601991F68380A1770507020
:1035F000380C3F0E9070D7705F68380A17715071A1
:10360000380C3F0E9071D7719F68380A177250724C
:10361000380C3F0E9072D772DF681033380A177378
:103620005073380C3F0E9073D77310328A42DBD13F
:103630000F2253464F4601939743130062461036BC
:103640001032D219F7190C262B404146584698469D
:103650002E4200D1FDE043463D682E0A157056709B
:103660002E0C2D0ED5701D1F9670032D13D97D685D
:103670002E0A157156712E0C2D0ED5714546083D3A
:103680009671032D07D9BD682E0A157256722E0C3D
:103690002D0E9672D572434603259E08013EB60054
:1036A0001D40043204379219BF196E1E002D09D037
:1036B0003D781570002E05D07D785570012E01D013
:1036C000BD7895708027019B3F021F43FDE60023D4
:1036D000984663460293032366469B464B46170073
:1036E00033421ED08C4601998146100042468846DE
:1036F000310008E0835C01368B545B460137013DA5
:1037000001321E4208D0002DF4D14346614648469E
:103710000193D7E78006002043466146484601935F
:1037200002960F2D3DD910235B429B46AB445B466E
:103730000F2B6ED93A00029E0F32921B1E2A68D9B7
:1037400032003A43520764D11B099B4601235B4474
:103750009946B44633003A004E460397A84657466A
:10376000A146824602910137146855689068D16875
:103770001C605D609860D96010321033BE42F2D890
:103780001023454698464C4650460299039FE04414
:103790000F225B4615401A01434610379B180293CF
:1037A000BF18032D1AD93A68029E32602A1F032AD5
:1037B0000AD97B68736008235B429C46AC4463462D
:1037C000032B01D9BB68B3600323029E92089200C9
:1037D00004361D400437B3180293BF18002D00D1E2
:1037E00070E73A78029B1A70012D00D16AE77A7867
:1037F0005A70022D00D165E7BA789A7062E7624686
:103800003700019249461A006E1E4FE702204042DF
:103810006CE65B461B099B461B019C4610239846A1
:10382000029A019B9044C444994663463E008C46EC
:1038300019003368136073685360B3689360F3686A
:103840001036D36010329142F3D14B46614601935A
:103850009EE71D006E1E29E70120404246E6A8466D
:103860006E1E032D00D9F6E622E7C046F0B5DE460F
:1038700057464E4645467F20E0B5014085B0002AB8
:1038800054D09226CC00BE486518AD004519B6004C
:10389000AE193678002E00D1F0E19326B600AE19AD
:1038A00032609426B600AE19336095260027B60024
:1038B000AE193760002B55D09126B600B44665444A
:1038C0002E8835009E4200D91D00ABB29E4200D921
:1038D0007BE08026F600334301936618A94FB600BB
:1038E0008619F7193F78BC466346019F7F2B00D9A4
:1038F00070E099236418A40000199B00C1180A788D
:1039000013005C1EA341012462400A7097229200BA
:103910009446604402685B033B431360002005B09B
:10392000F0BCBB46B246A946A046F0BD002B00D075
:10393000CAE19225CC009248621892008218AD002C
:1039400055192D78002D00D198E19325AD0055191A
:103950002B609425AD0055192B609525AD00AC4624
:103960006244136091229200944663189B00C3182E
:1039700063441B88002B23D180258422ED00120292
:10398000804E6318B4469B00C31863441B787F2B9A
:1039900000D82A0099236118890041189B00CC188F
:1039A000207803005D1EAB415B03134301225040AE
:1039B00097229200944661440A6820701360ADE734
:1039C0008825C422ED011202DAE78826F601334386
:1039D000019382E798239B009C4666443368160057
:1039E0001F009C460323994657403B409A464B464E
:1039F0003B4200D1A1E0C846002D00D198E0019AD9
:103A000063468946944607E07E1C3F78013D531C7F
:103A10001770002D00D12AE141461A0037000E42EE
:103A2000F2D1029363460193029B49469C460F2DB7
:103A300000D84CE110235B429946A9444B461F092C
:103A4000019B83469A46330001373F016744019743
:103A5000884601991F68380A17705070380C3F0E5D
:103A60009070D7705F68380A17715071380C3F0E2C
:103A70009071D7719F68380A17725072380C3F0ED8
:103A80009072D772DF681033380A17735073380C8E
:103A90003F0E9073D77310328A42DBD10F22534608
:103AA0004F46019397431300624610361032D219E5
:103AB000F7190C262B404146584698462E4200D115
:103AC000FFE043463D682E0A157056702E0C2D0EF1
:103AD000D5701D1F9670032D13D97D682E0A1571A0
:103AE00056712E0C2D0ED5714546083D9671032D4D
:103AF00007D9BD682E0A157256722E0C2D0E9672BD
:103B0000D572434603259E08013EB6001D4004328F
:103B100004379219BF196E1E002D09D03D7815701B
:103B2000002E05D07D785570012E01D0BD7895709E
:103B30008027019B3F021F43DBE600239846634634
:103B40000293032366469B464B461700334220D020
:103B50008C4601998146100042468846310008E0B3
:103B6000835C01368B545B460137013D01321E42B6
:103B70000AD0002DF4D14346614648460193D7E769
:103B800080060020490200004346614648460193F2
:103B900002960F2D3DD910235B429B46AB445B46FA
:103BA0000F2B6ED93A00029E0F32921B1E2A68D943
:103BB00032003A43520764D11B099B4601235B4400
:103BC0009946B44633003A004E460397A8465746F6
:103BD000A146824602910137146855689068D16801
:103BE0001C605D609860D96010321033BE42F2D81C
:103BF0001023454698464C4650460299039FE044A0
:103C00000F225B4615401A01434610379B1802935A
:103C1000BF18032D1AD93A68029E32602A1F032A60
:103C20000AD97B68736008235B429C46AC446346B8
:103C3000032B01D9BB68B3600323029E9208920054
:103C400004361D400437B3180293BF18002D00D16D
:103C50006EE73A78029B1A70012D00D168E77A78F6
:103C60005A70022D00D163E7BA789A7060E7624615
:103C70003700019249461A006E1E4DE7022040426D
:103C80004DE65B461B099B461B019C46102398464C
:103C9000029A019B9044C444994663463E008C4678
:103CA00019003368136073685360B3689360F368F6
:103CB0001036D36010329142F3D14B4661460193E6
:103CC0009EE71D006E1E27E70120404227E6A8461A
:103CD0006E1E032D00D9F4E620E7C046F0B5982209
:103CE0004F46D6464646494BC0B59F58FA0635D48E
:103CF000FB035CD4FB0428D58022454B12031A65D4
:103D00000023424A00201360424A9360D36013614B
:103D100053619361D361136253629362D3621363FD
:103D200053639363D363136453649364D3641365DD
:103D300053659365D365136653669366D3661367BD
:103D400053679367D367FDF747FB7B0457D43F0462
:103D50004DD4E0BCBA46B146A846F0BD9E6D002EDB
:103D6000C6D02B4B002599462B4B01249A4602E0E6
:103D70000135202DBCD02300A04633406400002B29
:103D8000F6D04B4642469A65EBB25B08D800C018A5
:103D90008000EB0726D591239B009C46604450444D
:103DA000FEF700FB43469E43E2D1FB03A2D5194B2D
:103DB00019491A68194B0020CA50194B1A689123E7
:103DC000DB00CA50012324228B54992292008B5489
:103DD000124B9C466144FDF77FFB80220C4B920204
:103DE0001A6587E704305044FEF7DCFADAE78022F0
:103DF000074B120100201A65FDF7B6FAA9E7102259
:103E0000034B00201A65FDF7C7FAA0E70000115028
:103E10000030115000001050800600208404000083
:103E20000400105070B5D02480252406ED01656192
:103E30000020FFF753FFA56170BDC046094A83000B
:103E40009A1810B514684022544080322240064C23
:103E5000C000A44663441A60044B9C466044416021
:103E600010BDC04604C0014004D0014000400140E4
:103E70000123D0228340120693629361094A830092
:103E80009A1811684022514080320A400649C00009
:103E90008C4663441A60054B9C460523604443608E
:103EA0007047C04604C0014004D0014000400140BA
:103EB0000FB400B5084883B001F09AFF049B002BB3
:103EC00007D005A91800019101F016FE034801F082
:103ED0008FFF012001F028FE48650010AC6500103E
:103EE000EFF3108072B6034A1368002BFCD0BFF3C7
:103EF0005F8F70472C0100D0BFF35F8F0022024B11
:103F00001A6080F3108870472C0100D070B5EFF371
:103F1000108C72B60D4D2B68002BFCD0BFF35F8F59
:103F20000724CB08C618C05C01230C40A3401C002A
:103F30000440034207D118433070BFF35F8F2C60F9
:103F40008CF3108870BD1000FFF7B2FF2C0100D079
:103F5000F8B54746CE46884680B5EFF3108C72B66A
:103F60001C4D2C68002CFCD0BFF35F8F9A4222D8E6
:103F700007210126894602E00132934218D34D46BB
:103F800037001540AF40D4080119045D2742F3D132
:103F900010003C430C70BFF35F8F00220D4B1A6082
:103FA0008CF3108800280EDBC0BCB946B046F8BDC3
:103FB00001204042EFE7BFF35F8F00232B608CF3BB
:103FC0001088012040424346002BEDD00898FFF7AF
:103FD0006FFFC0462C0100D0044A1078431CDBB2AE
:103FE000172B00D9102313707047C0460802002019
:103FF0000021044B044ABFF35F8F02C39342FAD1FE
:104000007047C046000100D0800100D0054B064A31
:104010001360064A136053609360D3601361536169
:10402000936170478080808000E400E004E400E059
:104030001F2318401E3B8340002905D0C021044A9D
:104040004900535013607047802201498B50FAE7B2
:1040500000E100E001228240034B1B6813405A1E1E
:104060009341D8B27047C04600E100E010B5EFF3CD
:10407000108C72B60F4A1368002BFCD0BFF35F8F11
:104080000D4B10309B6880001B580C4A934201D0A6
:1040900099420CD1084B9B681950BFF35F8FBFF357
:1040A0005F8F0022034B1A608CF3108810BD01F063
:1040B000B1FAC046240100D000ED00E0C1010010BB
:1040C000F0B557464E46DE464546E0B58A4685B0D1
:1040D0000600EFF3108972B663490B68002BFCD021
:1040E000BFF35F8F0021614B59568C46002900DADF
:1040F000B7E049000D005E4C6544AD0067190291C0
:10410000B979103619705B4BB1009B6801915B580F
:10411000191B2F2935D8012118008843C6799642EA
:1041200000D875E09B46029B019E9846039507E0E8
:104130004D006D18AD006519EB7993424ED92800FA
:10414000062141560029F3DA45465B460196029561
:10415000061D494D0396039E043FBF1B3F05474E76
:104160007F0D3743664687808671029860448000E1
:104170002418E27152464248A5802060A171A260D5
:1041800018E040498B4200D06BE03F4B3B49635302
:104190003E4B0235043B65195B1B1B055B0D0B4356
:1041A0007B803B4BFA71BB80FF23BB715346BB60E6
:1041B00001233B432F4A019992685350BFF35F8F0D
:1041C000BFF35F8F0022284B1A6089F3108805B077
:1041D000F0BCBB46B246A946A046F0BD0196464695
:1041E000029686885B467605B346061D039D0396B8
:1041F0005E463615B346061DB046C3445E460435DA
:104200006519751BE0262D056D0D36023543A2E7B5
:10421000204BFA719C46030066461B1B5B415E43C4
:10422000360DB446AE1CB046A0444646164B63530A
:10423000164B0435043B9B1B1B05104E5B0D334393
:104240007B806319C31A043B1B055B0D3343BB80A2
:104250006346BB715346BB60094B03603B000B4395
:10426000A8E701F0D7F9C046240100D0E1150020ED
:104270000C02002000ED00E001BD000000E0FFFFA7
:1042800001488047C101001000A1FFFF3C0200204F
:1042900001BDFFFFAAAA0000F0B5DE4657464E4614
:1042A0004546E0B583B0EFF3108C72B6624A1368EE
:1042B000002BFCD0BFF35F8F604B614C9A6803000A
:1042C00010339D005259A146A2423DD08A424ED0A1
:1042D0005C4C161B2F2E37D80127BA4687405A4E02
:1042E000B04636683E401F27B346564638408640A3
:1042F0004746802001963E50BFF35F8FEFF3058065
:104300008046002835D0834200D093E01000534609
:1043100098438668B14208D17AE07B00DB199B00A4
:10432000E3189E68B14236D018000627C757002F01
:10433000F3DAB14258D05B46002B27D0C021424B64
:1043400001984900585018603C4B9B685A51BFF384
:104350005F8FBFF35F8F0022374B1A608CF310889A
:1043600003B0F0BCBB46B246A946A046F0BD220051
:10437000EAE71000534698438668B142D5D1062635
:1043800086570300002E0ADA4A4635E080232E497C
:104390000198C850D8E706269E57002E25DB7100ED
:1043A000881980002718B846BF689F604746FF7984
:1043B000DF714746BF797FB29F71002F26DB4746EA
:1043C000BF887F053F15B8468044E01A40441F4F20
:1043D0000005400D384398808B191D499B000878D3
:1043E000E31898710E70A6E703004146002914D126
:1043F000FF318171174981801548017899711649FB
:104400001B1B5B415943090D017094E71148E2E71A
:10441000062686570300002EC1DA10491048C91A33
:1044200008394C02640D204398800E484908014326
:10443000D98080E701F0EEF8240100D000ED00E023
:10444000C10100100C02002000E100E000E0FFFFCD
:10445000E115002001BDFFFFAAAA000046020020CE
:1044600000F0FFFF00F8FFFF70B501240443EFF3F5
:104470000581EFF3108C72B6214A1368002BFCD033
:10448000BFF35F8F1F4B05001F4AED1A6D416A4352
:10449000120D1E4D8900AE6852B27658A6421CD04D
:1044A0000621595691421CD012215956914222D0D0
:1044B0001E215956914220D02A2159560324914257
:1044C00010D0134B19781A708171BFF35F8F0022DF
:1044D0000B4B1A608CF3108870BDAB680D4C5C50B0
:1044E000EFE700246100091989005B18FF21997129
:1044F00009499980E5E70124F4E70224F2E7C04680
:10450000240100D00C020020AAAA000000ED00E067
:10451000E1150020C101001001BDFFFF024B9C46C8
:1045200061448900016070474000003470B5114C4F
:10453000114DAC420FD2FF262368002B0CD0FFF7A1
:104540004BFD01002000FFF7E9FFA680BFF35F8F5E
:104550000834AC42F0D370BDFFF73EFD01002000EF
:10456000FFF7DCFF2671BFF35F8F0834AC42E3D363
:10457000F1E7C046B8020020C80200200A4B1968C3
:10458000EFF3108072B60A68002AFCD0BFF35F8F89
:104590001B68BFF35F8F00221A6080F3108840BF52
:1045A000002000217047C046F4130020F0B5DE461D
:1045B00057464E464546E0B587B0EFF305830322E4
:1045C00001251A40954091008846A946B34B0392B5
:1045D0005C58B34B1D60B34B04934B46B2484363E6
:1045E0000823E55E002D37DAA3881BB2002B00DB21
:1045F000ADE0A379002B00D0EEE00823E05E0028B8
:1046000020DB430062691B18DB00D3189E68DD685D
:10461000731C00D111E1A44801004144826A0B6976
:10462000B71A9B1A9F4215D30123026A039883404D
:104630001A420FD09C4800F05FFB8D4202DCCCD1C7
:104640008642CAD940BF07B0F0BCBB46B246A946B5
:10465000A046F0BD0E61EDE762696B0092465B1902
:10466000DB009A4453469E68DF6800F045FB8F42AA
:10467000BADC00D103E1002F00DAE8E052465346ED
:1046800052691B699346049A934200D1D9E052467D
:104690000821605E528800045946104398470090F4
:1046A00001910099019A0B001000134300D1CEE054
:1046B00013000A00B61A9F41002806DB7A4800F072
:1046C0001BFB009E019F36184F4153469E60DF60E2
:1046D00000229A5E002A00DA86E753009918606982
:1046E000C900411802938B68C9689B46B94200DD36
:1046F0007AE702D1B34200D976E708239C46A44466
:10470000059565462281A446029B2C0006E05300D5
:104710009918C90041188D68C968AB469B18DB0021
:10472000C318B94206DC00D1B3E01C000023E25EEE
:10473000002AECDA230064469C4653461A806346FE
:10474000059D1D80A3881BB2002B00DA51E722696A
:10475000EFF3108172B61368002BFCD0BFF35F8FAC
:104760000123A7885B42A3803FB22369BFF35F8F19
:1047700000221A6081F31088002F00DA39E7230045
:10478000083322009A4666697B00DB19DB00F318C8
:10479000996850468C460824115FDD68002910DBBB
:1047A000029306E0AB4244D00023E15E20000029E2
:1047B00006DB4C006418E4003419E368AB42F1DD19
:1047C000029B078000201F5E1980002FDCDA140096
:1047D000A379002B00D110E70023A3712600082342
:1047E000E15E08364B1C00D12CE70800A246656943
:1047F00002E03E004B1C1AD04B005B18DB00EF18A8
:104800000A008C46E95E7B881BB2002BF1DA01239B
:104810005B42DC17BB60FC60824205D053463180AE
:104820001B893B8053461A8160464B1CE4D1544699
:10483000E5E6A3686345B7D9C2E76B1C00D0EAE69A
:10484000F8E65B4658461B69984700281BD153463B
:104850001B8822692381EFF3108372B61168002947
:10486000FCD0BFF35F8F514662880A802269658061
:10487000BFF35F8F0021116083F31088B4E6864296
:1048800000D8F8E6B0E65B461A685B6800920193D0
:1048900007E7B34500D848E74CE7C046D4130020EB
:1048A0003C700540AD4500100040054070B52E4CF1
:1048B0002569002D04D00A212C48FFF72FFE70BD7A
:1048C0002B4E0321300000F00DFAE660FFF784FB69
:1048D000284B03229C46D02322701B061B68012113
:1048E0006370254B6044A3600F2380002061022089
:1048F000638063694942A18019800231198647317A
:104900001D83585218315A5275325C3999521832F7
:1049100001319952183201319952183201319952AC
:10492000083518329D52023118329952183201312D
:104930009952183201319952183201319952183274
:10494000013199521832013199520C4B0C49DC60FB
:1049500001303562FFF78AFB01210320FFF768FB76
:10496000084B1D60A7E7C04660020020F41300203A
:104970000040054040000034FFFF1000D413002029
:10498000AD4500103860054070B501000469EFF3D3
:10499000108C72B620680028FCD0BFF35F8F022015
:1049A0000D5E4C6968004019C00024180869002D8C
:1049B00036DB26884E80BFF35F8F002606608CF3BF
:1049C0001088E36063880498013320615B040598D4
:1049D0005B0CA26060611A1C002B1FD093B22804EC
:1049E000628018430A69EFF3108C72B61368002BCB
:1049F000FCD0BFF35F8F8B8823808D800B69BFF362
:104A00005F8F00221A608CF310880B7801329A4075
:104A1000CB6808498C4663441A6070BD0122DDE70B
:104A2000BFF35F8F002303608CF3108801204042A6
:104A3000F3E7C0463C20000010B543890A149342B6
:104A40001ADD53009B184269DB00D3180469EFF3A9
:104A5000108C72B62268002AFCD0BFF35F8F5A8890
:104A6000090494B2090C8A4208D00369BFF35F8F2E
:104A700000221A608CF31088002010BD80221202E0
:104A800014435C80012302698371BFF35F8F0021AF
:104A900011608CF31088044902788C469340C268F8
:104AA000012062441360E8E73C200000F0B5C646F0
:104AB00000B582B0040000F027F9FA2206000F00CA
:104AC000200000230021920000F098FF8019794116
:104AD00004000D1E02DA01242E4D644206267642A1
:104AE000F71736196F41AF4214D811D000F00CF906
:104AF00032003B00121A8B41002B15DC002B46D0F4
:104B00002000290000F03EF902B080BCB846F0BD9C
:104B1000A642EBD90026002700F0F6F832003B0051
:104B2000121A8B41002BE9DD00F0EEF832003B0059
:104B3000121A8B41002B0ADB00230193164B320023
:104B4000009316483B00FFF71FFF0130D8D0002329
:104B50003900B0469C46124A1248536A994204D81A
:104B6000966A4645CCD29942CAD10668EFF31087BF
:104B700072B63368002BFCD0BFF35F8F0368BFF3BE
:104B80005F8F66461E6087F3108820BFE5E7002A26
:104B9000B6D0C9E7FFFFFF7F7D450010600200200F
:104BA00000400540F4130020F0B54546DE46574668
:104BB0004E46E0B504000D0085B0EFF3058389464D
:104BC000002B37D1434B9A461B6883422DD0424B72
:104BD0009B46DB6898465B461B784046039300F093
:104BE0008BF84246039B060004339B009B580F0042
:104BF0001B1A290020000022801BB9418A4228DCB0
:104C000025D020BF354B586A48452ED3401B9A6AA1
:104C1000431E98410023A2425B41184305B0F0BCFB
:104C2000BB46B246A946A046F0BD53465B688B42E0
:104C3000CDD1E6E7294900204B6AAB42EED38A6A20
:104C40005B1B591E8B41A24240411843E6E7834259
:104C5000D7D900F059F822002B00121A8B41002BF3
:104C600005DA1E4A536A4B452AD20020D6E70023B4
:104C700001931B4B2200009358462B00FFF784FE44
:104C8000011EEEDD53461C605D60144B5A6A4A45B6
:104C900014D39B6AA3420FD35846FFF7CDFE0F4AA9
:104CA0000020536A4B45B9D3926A5B1B591E8B4156
:104CB000A24240411843B1E74A45EDD120BFEBE79E
:104CC0000020926A5B1BA24240415A1E9341184346
:104CD000A4E7C046580200206002002000400540C2
:104CE0007D45001010B5024A0248FFF70FF910BDCC
:104CF000586500102C0D00200300416A0A00986AD4
:104D0000596A8A42FAD17047034B596A0A00986A75
:104D1000596A9142FAD170470040054070B50400CD
:104D20000D00174A536A1900966A536A8B42FAD1EA
:104D30003000190024184D41AB4216D813D0104B47
:104D40002A005B6A9D4203D90D494B6A9342FCD30A
:104D5000934207D10A4A02E0516A994202D1916A0C
:104D6000A142F9D370BDA642E9D9054B5B6A1C008C
:104D70005A1CEFD0012201246442E5175242E3E7B6
:104D800000400540064A536A9942FCD807D1044BBB
:104D900002E05A6A914202D19A6A9042F9D8704769
:104DA00000400540F8B5040006200D0000F078F939
:104DB000002844D0374B3849E3185A1E93418022CB
:104DC000120494465B429B0D344A9B056344136076
:104DD000334A136018000A689043FBD12D4B314AC7
:104DE000E31859424B4180215B004900062099524B
:104DF00000F056F92900C00000F072FD0130C3092F
:104E00001ED1402701226262A362266BF30722D4DF
:104E1000E36A254B0620E51800232B60266300F08B
:104E20003FF93900800000F05BFD7023E26A5A40D0
:104E30000E3313402B601D4B23630323A364F8BD83
:104E40001B4A93421ED900231A4A1B4F6262A36277
:104E5000266BF307DCD5194B144AE3181A60656A10
:104E6000A36A0620AD01ED1800F01AF9144900F00C
:104E700037FDAD020100280000F032FD0021FFF7F0
:104E80004DFFC5E74006800E9F011A003F18030042
:104E9000B9E7C0460080FCBF08C0004000E0004009
:104EA00000F00040D81500202C1000000103000085
:104EB000FEFF0000FFFF0000C0FF3F003030000099
:104EC0004E0E0000F8B5DE464E4657464546E0B564
:104ED0008B4605000A991800160000F001FD0A9B98
:104EE0006C001F02324B64199C46A4006444636842
:104EF00081469F4200D967602B1FDBB29846012B89
:104F000030D9C02380229B01E31812011A60294B7B
:104F1000AD0059599A4600291BD17301E026226839
:104F200053401E40802342465B01E3181E60012A65
:104F300030D9802380229B01E31812011A60534666
:104F40004A4667605A51F0BCBB46B246A946A046E5
:104F5000F8BD586900F0C4FC013043001B18033B46
:104F6000FDD2DAE75B46012BCBD1C02303229B01A4
:104F7000E3181A60023AA3681A42FCD07301E026D3
:104F80002268AD0053401E4080230A4A5B019246CE
:104F9000E3181E605A462168514003220A401A60F5
:104FA00001225B469A40A3681A42FCD0C1E7C04682
:104FB00000800040340D0020F0B546464F46D646EE
:104FC000C0B51F00344B44009C462418A400644420
:104FD000636888461600FF2B02D880235B0063605D
:104FE000031FDBB29A46012B30D9C02380229B01DC
:104FF000E31812011A60294B850059599946002976
:105000001BD17301E026226853401E408023524684
:105010005B01E3181E60012A30D9802380229B01A6
:10502000E31812011A6080235B0063604B465F51F6
:10503000E0BCBA46B146A846F0BD586900F050FC45
:10504000013043001B18033BFDD2DAE74346012B36
:10505000CBD1C02303229B01E3181A60023AA36854
:105060001A42FCD07301E0262268850053401E409E
:1050700080230A4A5B019146E3181E60424621687C
:10508000514003220A401A60012342469340A2681D
:105090001342FCD0C1E7C04600800040340D002020
:1050A000014B8000C0587047340D0020F0B54746D2
:1050B000CE4680B55B4B16005A680700884683B021
:1050C000FF2A02D8802252005A600322564B554DC7
:1050D0001A600123AC682342FCD020222968514089
:1050E000C0320A4051490A602A684E4D5A40032393
:1050F00013400B600223AC682342FCD080224C4B4F
:1051000012011A6080235B006B604A4C99464A4B3F
:105110003A006361012143464848009600F0D8F9FF
:1051200041463800714300F0DBFB454B05005A68EF
:10513000FF2A01D84A465A608022424B12011A6067
:105140002169002907D0606900F0CAFB01304300E3
:105150001B18033BFDD2E023394A3B4811680B4042
:10516000036002231168594001330B40042103609E
:1051700093681942FCD08021344B090119608021C9
:10518000334B490051602361264B5A68FF2A00D8EF
:10519000596003220121244B1A60224A9368194264
:1051A000FCD0E0231068034020480360126803230A
:1051B0004A40022113401B4A036093681942FCD005
:1051C00080211B4B090119608021224B490051604D
:1051D00065615A68FF2A00D8596080221E4B12016F
:1051E0001A60A169002907D0606900F079FB0130DD
:1051F00043001B18033BFDD2402316490A685A405E
:10520000A0331340154A13608022154B12011A6017
:1052100080235B004B60084BA36103B0C0BCB94660
:10522000B046F0BD3C8000403CB000403C900040A7
:105230003CA00040340D0020006CDC0200800240E5
:105240003080004030B000403090004030A000403E
:10525000001BB7004880004048B000404890004024
:1052600048A00040F0B54E46DE4657464546E0B5FC
:105270001600924A85B09346A022520091465A46A3
:1052800003969B46060001920291019B8C4A934231
:105290000DD901235B429C468A4AE1449446019B16
:1052A000634401934B460F2BEFD100208EE01F008B
:1052B000854B07249C46674423006343380019004C
:1052C000984600F00DFBA246651E864250D06C4306
:1052D0003800210000F004FB864259D06B1E98462E
:1052E000012D00D1D3E05346E41A2100380000F02C
:1052F000F7FA864258D0AB1E9846022D00D1B9E08D
:105300005346E41A2100380000F0EAFA864264D0DD
:10531000EB1E9846032D66D05346E41A2100380050
:1053200000F0DEFA864200D172E02B1F9846042D71
:1053300000D174E05346E41A2100380000F0D0FA9E
:10534000864200D17DE0052D00D17FE05346380034
:10535000E11A00F0C5FA06248642ADD10029ABD18E
:10536000C8465B46D14601250298039E26E0A84622
:105370004146380000F0B4FA002900D197E0651EDC
:10538000A2466C433800210000F0AAFA8642A5D15B
:105390002100380000F0A4FA00299FD1C8465B46DE
:1053A000D1460298039E09E00029A4D15246C24684
:1053B0005B46C846554691460298039E424643497D
:1053C00051434A460160012032601D6005B0F0BCC7
:1053D000BB46B246A946A046F0BD0029E6D0EB1E6A
:1053E0009846032D98D1092138000324092500F09F
:1053F00077FA8642BBD00323062138009A4603344D
:10540000073D00F06DFA8642C2D0012398466AE754
:105410000029CBD02B1F9846042D00D08AE7042406
:105420000C353B099E42A2D004230C2138009A4639
:1054300008340D3D00F054FA8642A9D00223984664
:1054400051E70029B2D0052D00D07FE7192138009F
:10545000192500F045FA864226D01421380000F0C4
:105460003FFA052314249A4686421BD0023B9846F5
:10547000153D38E7042302249846BB089E4200D11C
:1054800076E7A246013D7B089E4200D180E7B74205
:1054900000D0FEE60122C8465B46914601250298EF
:1054A000039E8BE7042573E7A846052460E7C846FA
:1054B0005B46A14625000298039E7FE750262F00F9
:1054C00050F80C0020D1FFFFB0710B00001BB7009B
:1054D000F8B5040021481E0017000D0000F000FA86
:1054E0000100380000F0FCF9069B36041B031E4344
:1054F0002368002B20DB1A4B1A49E3185A1E9341EC
:105500008022920194465B421B0B174A1B036344A3
:105510001360164A13601F000A689743FBD1144BAF
:105520002560E2182123A06013602368002BFCDAB9
:105530000823E6601360F8BD3F2322681340AB42A6
:10554000D9D1A3681B051B0D8342D4D1EE22E36899
:10555000D2021340B342CED1EDE7C046001BB700E4
:105560000040FDBF08C0004000E0004000F00040E7
:10557000043000008023024A9B000B43D362704733
:1055800000800540002310B50100988A1B8B9847C6
:1055900010BDC046162310B50100188802331B88C1
:1055A000984710BDF8B54746CE4680B50F1E18D0B7
:1055B00014239946043304000025012698464B46DF
:1055C0001888434621681B88984701C4431E9841A8
:1055D00001350640AF42F2D13000C0BCB946B046FA
:1055E000F8BD0126F8E7C046AA23064A1B0113604E
:1055F0008D235B00D3600449044B19605368002B72
:10560000FCDA70470040024000B0FA00006002403F
:105610007047C04610B50148FEF74AFC7C65001093
:1056200070B5074D074EB54209D20024013E761BE6
:10563000B60808CD984723000134B342F9D170BDB4
:1056400098640010D864001070B5074D074EB5423D
:1056500009D20024013E761BB60808CD98472300E6
:105660000134B342F9D170BDCC640010D86400108D
:10567000054B064A06491A60064A074B1A60100095
:105680000B689843FBD1704700E00040BFCDFBFEA4
:1056900008C00040FE7F3C0000F00040044BDB6C83
:1056A000002B03D18022034BD2021A607047C04600
:1056B000000011504C201150044A054B1A60054A55
:1056C0001368DB018033FBD17047C046FFFFFF0149
:1056D00000F0004008C000404022034B9A675A6720
:1056E0001A67DA667047C04600F0014010B5FEF751
:1056F0007FFC10BDF8B52749274C284D641AA40833
:105700002200302C00D930222800920000F0E6F967
:105710002F2C3BD830202F21A700EB195B07204A04
:10572000001BDB0F091B052916D92600002B01D011
:10573000EA51661CC01AE3189B004108EB18C90027
:10574000C9181A605A6008338B42FAD10123034208
:105750001CD098438419A700EA51631C2F2C15D044
:105760009B00EA50A31C2E2C10D09B00EA50E31C97
:105770002D2C0BD09B00EA50231D2C2C06D09B0017
:10578000EA50631D2B2C01D09B00EA50054B9D6015
:10579000F8BDC04600010010C0010010000000204C
:1057A000C101001000ED00E0002310B5294C82B0CB
:1057B000A367FFF719FF0122274B1A60636C012BC7
:1057C000FCD10322254B1A60224A936B012BFCD19A
:1057D000013300930121224A22480433FFF778FE67
:1057E000052301210093204A2048FFF771FE002283
:1057F000022104201E4BFFF7DFFB002201210520C0
:105800001C4BFFF7D9FB0022002107201A4BFFF7A2
:10581000D3FB002200210820174BFFF7CDFB80238C
:10582000DB000093002200210920134BFFF74AFB05
:105830000022104B00210620FFF7BEFB0420FFF7DB
:105840002FFC0E4900F04CF801000020FFF792FEFB
:1058500002B010BD008000403CB0004030B00040BD
:10586000002F685900800240008C864700C002402B
:10587000001BB70040597307006CDC0240420F0068
:1058800001480421014B184780020020A555001053
:10589000124A936F9B0815D29066D166002905D0F5
:1058A000FFE7FFE7FFE7516F106F704704B58021F6
:1058B0000906C2175140002800D0C84300F0D4FDAB
:1058C000002104BDF0B5146E556E576F166FFFF7CB
:1058D000E3FF1466556657671667F0BD000000D0F9
:1058E000114A936F9B0813D210665166002905D0A8
:1058F000FFE7FFE7FFE7516F106F704704B500281F
:1059000001D00020C04300F0AFFD002104BDC0461F
:10591000F0B5146E556E576F166FFFF7E5FF1466FE
:10592000556657671667F0BD000000D0132370B5A9
:105930001D78012D19D014DD1F48FFF72BFE06003E
:105940001E48FFF727FE1E4C80223100200000F089
:10595000C5F8022D2DD01B48FFF714FE1A4B186016
:1059600070BD1A4B164CA364F5E7184B144C23601A
:105970006360A360E36023616361A361E361236209
:105980006362A362E36223636363A363E3632364E9
:105990006364A364E36423656365A365E3652366C9
:1059A0006366A366E36623676367A367E367A3642D
:1059B000D1E7064BA364CEE75344000053460000F2
:1059C000100B00204C330000F0130020D1590010C0
:1059D00007B5604601880A0A0230DF2AFAD1C9B247
:1059E000820804D3028840880004104300E0006865
:1059F000014A5050039007BD100B00205143434310
:105A0000C9188C46110C83B24B4310B4040C61438B
:105A100092B280B2504362431C041B0C001910BCAC
:105A200059411304120CC0185141614470470000E1
:105A3000132310B512481C78FFF7ACFD0100012CB0
:105A40000AD003DD80220F4800F048F80E48FFF727
:105A500099FD0E4B186010BD0A4C5422200000F036
:105A60003DF80B4B6365A365E36523666366A36638
:105A7000E36623676367A367E3672362E361E5E7A0
:105A800053460000100C00204C330000F01300209F
:105A9000955A001007B5604601880A0A0230DF2ACD
:105AA000FAD1C9B2820804D30288408800041043A6
:105AB00000E00068014A5050039007BD100C002020
:105AC00001480421014B184790020020A555001001
:105AD000014B1B681847000090020020014B5B68D7
